:100000000C94961A0C945B880C9430880C94058898
:100010000C94DA870C94AF870C9484870C945987DE
:100020000C942E870C9431370C9422370C94133790
:100030000C94C71A0C94C71A0C94C71A0C94C71ABC
:100040000C94C71A0C94CCAB0C94C71A0C94C71A16
:100050000C94C71A0C94C71A0C94DACE0C94E4864C
:100060000C94C71A0C9482380C94C71A0C94C71AB3
:100070000C94C71A0C94C71A0C94C71A0C94C71A7C
:100080000C9422B30C94C71A0C94C71A0C94C71A78
:100090000C94C71A0C94C71A0C94C71A0C94C71A5C
:1000A0000C94C71A0C94C71A0C94F4B20C94C71A87
:1000B0000C94C71A0C94C71A0C94C71A0C94C6B2A5
:1000C0000C94C71A0C94C71A0C94C71A0C94C71A2C
:1000D0000C94C71A0C94C71A0C94C71A0C94C71A1C
:1000E0000C94C71A67846A8459845D846384A184EC
:1000F0006E84728478847C84808486848A848E84EE
:10010000A184948498849C84008605860A8614863B
:100110001E86978628863086388642864C86568686
:1001200065866F869786798683868D86084AD73B53
:100130003BCE016E84BCBFFDC12F3D6C74319ABDB6
:1001400056833DDA3D00C77F11BED9E4BB4C3E91DA
:100150006BAAAABE000000803F05A84CCDB2D44EC9
:10016000B93836A9020C50B9918688083CA6AAAACB
:100170002ABE000000803F000D94D0020D94CC04F4
:100180004E414E494E495459494E46CDCCCC3D0A7C
:10019000D7233C17B7D13877CC2B329595E6241F5F
:1001A000B14F0A000020410000C84200401C462018
:1001B000BCBE4CCA1B0E5AAEC59D74434F4D4D5527
:1001C0004E49434154494F4E0044525952554E00F6
:1001D0004552524F525300494E464F004543484FF7
:1001E0000047322F47332062616420706172616D75
:1001F00065746572730A00536C6565702E2E2E004F
:10020000473238205A20466F7262696464656E0A0C
:1002100000473238205A20466F7262696464656E06
:1002200000205A3A200020593A20004265642058A4
:100230003A20004D65736820706F696E74206361A9
:100240006E6E6F74206265207265736F6C76656484
:100250000A00526573756D696E67207072696E74FD
:100260000042414B415052494E54207265616479BD
:100270002E00436C69636B20746F20726573756D1B
:10028000652E2E2E004E6F206D6F76652E00456E0A
:10029000642066696C65206C6973740A0042656746
:1002A000696E2066696C65206C6973740A0053443A
:1002B000207072696E74696E6720627974652000BF
:1002C0004E6F74205344207072696E74696E670AB1
:1002D0000046696C652064656C657465643A004429
:1002E000656C6574696F6E206661696C65642C204D
:1002F00046696C653A20006F70656E206661696CB6
:1003000065642C2046696C653A20002569730025D8
:10031000696D20256973002569682025696D202590
:10032000697300256964202569682025696D202589
:10033000697300256979202569642025696820256D
:10034000696D20256973005072696E742074696D3F
:10035000653A200050726F7465637465642050695B
:100360006E0A006F6E2E0A006F66662E0A00473214
:100370003620446562756720004525692025730095
:1003800042414B415052494E542072656164792E6E
:1003900000DC01D701D001C901BB016F66660044D2
:1003A000454255473A004B494C4C45442E20004DA0
:1003B0003131332053006F6B0048656174696E679B
:1003C00020646F6E652E0020573A00452569202570
:1003D000730042414B415052494E54207265616452
:1003E000792E0042656420646F6E652E0020573AB6
:1003F000004265642048656174696E672E00424161
:100400004B415052494E54204F66662E00454D4593
:100410005247454E43595F50415253455200434164
:1004200053455F4C494748545F4252494748544EF0
:1004300045535300544F47474C455F4C4947485438
:100440005300534F4654574152455F504F57455202
:10045000004255494C445F50455243454E54004C70
:100460004556454C494E475F44415441005A5F5000
:10047000524F4245004155544F4C4556454C005053
:1004800052494E545F4A4F420050524F47524553D3
:1004900053004155544F5245504F52545F54454DAF
:1004A0005000564F4C554D45545249430045455018
:1004B000524F4D0053455249414C5F584F4E5F5883
:1004C0004F4646004649524D574152455F4E414DB9
:1004D000453A4D61726C696E20312E312E382028DC
:1004E0004769746875622920534F555243455F43ED
:1004F0004F44455F55524C3A68747470733A2F2FCD
:100500006769746875622E636F6D2F4D61726C69D7
:100510006E4669726D776172652F4D61726C696E9E
:100520002050524F544F434F4C5F56455253494F02
:100530004E3A312E30204D414348494E455F545983
:1005400050453A42414B415052494E54204558542F
:1005500052554445525F434F554E543A31205555FC
:1005600049443A63656465326132662D34316132E3
:100570002D343734382D396231322D6335356336B9
:10058000326633363766660A002F2F20007A5F6D99
:10059000696E3A2000795F6D696E3A2000785F6D70
:1005A000696E3A20005265706F7274696E672065DB
:1005B0006E6473746F70207374617475730A004D88
:1005C00031343520533C696E6465783E206F757414
:1005D000206F662072616E67652028302D31290AF0
:1005E00000000136372603FF3C3D380EFF2E303E1B
:1005F00012FFFF0C0A04FFFFFF24221EFFFF0A4424
:1006000008FF3AFFFFFFFFFFFF43290A0061626C0A
:10061000656420286D696E2074656D702000436FDD
:100620006C642065787472756465732061726520EE
:10063000004F66660A004661646520486569676820
:10064000742000426564204C6576656C696E672095
:10065000004661696C656420746F20656E61626C30
:100660006520426564204C6576656C696E670A009A
:100670004D65736820706F696E742063616E6E6F74
:1006800074206265207265736F6C7665640A004D34
:1006900034323120696E636F7272656374207061E9
:1006A00072616D657465722075736167650A004FCC
:1006B000666673657473206170706C69656400456B
:1006C00072723A20546F6F206661722100546F6F0E
:1006D000206661722066726F6D2072656665726554
:1006E0006E636520706F696E740A003A2000207A8C
:1006F0005F6D696E3A20202D3230207A5F6D61780F
:100700003A202032300A0050726F6265205A204F22
:100710006666736574004E6F2063617365206C6953
:100720006768740A0041637469766520457874725D
:10073000756465723A2000556E6B6E6F776E20633C
:100740006F6D6D616E643A2022004D6573682056AE
:10075000616C69646174696F6E2053746F70706549
:10076000642E00696E206D6F76655F746F28292096
:10077000666565645F76616C756520666F7220588A
:10078000593A004C656176696E67204732360047FA
:1007900032362048656174696E67204E6F7A7A6CD4
:1007A000652E004732362048656174696E672042C5
:1007B00065642E00446F6E65205072696D696E67C6
:1007C00000446F6E65205072696D696E67004669FE
:1007D000786564204C656E677468205072696D6539
:1007E0002E00557365722D436F6E74726F6C6C655D
:1007F00064205072696D65002C2065793D002920C8
:100800002D3E202865783D002C2073793D00204343
:100810006F6E6E656374696E6720776974682076A1
:100820006572746963616C206C696E6520287378E9
:100830003D002C2065793D0029202D3E202865783B
:100840003D002C2073793D0020436F6E6E6563740C
:10085000696E67207769746820686F72697A6F6E55
:1008600074616C206C696E65202873783D004C655E
:100870006176696E6720473236002C2079693D0029
:10088000202020446F696E6720636972636C652065
:1008900061743A202878693D003F5370656369664A
:1008A00069656420582C5920636F6F7264696E61AA
:1008B0007465206F7574206F6620626F756E647347
:1008C0002E0A003F28522965706561742076616C9C
:1008D0007565206E6F7420706C61757369626C65EC
:1008E0003B206D757374206265206174206C6561B6
:1008F000737420312E0A003F537065636966696521
:1009000064206E6F7A7A6C652074656D70657261B3
:1009100074757265206E6F7420706C617573696296
:100920006C652E0A003F53706563696669656420D3
:1009300066696C616D656E742073697A65206E6F8F
:100940007420706C61757369626C652E0A003F5388
:100950007065636966696564207072696D65206C95
:10096000656E677468206E6F7420706C6175736952
:10097000626C652E0A003F53706563696669656441
:10098000206E6F7A7A6C652073697A65206E6F7459
:1009900020706C61757369626C652E0A003F53703C
:1009A0006563696669656420526574726163746920
:1009B0006F6E204D756C7469706C696572206E6F16
:1009C0007420706C61757369626C652E0A003F5209
:1009D000657472616374696F6E204D756C746970B3
:1009E0006C696572206D7573742062652073706523
:1009F0006369666965642E0A003F537065636966C2
:100A0000696564206C6179657220686569676874DE
:100A1000206E6F7420706C61757369626C652E0A4C
:100A2000003F537065636966696564206265642090
:100A300074656D7065726174757265206E6F742077
:100A4000706C61757369626C652E0A0047323620DE
:100A5000636F6D6D616E6420737461727465642E72
:100A60002057616974696E6720666F7220686561DE
:100A70007465722873292E0A004B494C4C45442E4C
:100A80002000202D20496E76616C696420657874A1
:100A90007275646572206E756D62657220210A0040
:100AA0001FFFFFFFFFFFFF600000000001FF40008D
:100AB00000000000FF8000000000007F83CF0000E6
:100AC0000C303F87FF80000C301F867980000C00BF
:100AD0000F8C30C7838C30E78C30CFC7CC31F38C90
:100AE00030DCECEC33B98C30D86C6C33198C30D0F2
:100AF0006C0C33198C30D86C0C33198C30DC6C0EC8
:100B00003B198C30CF7C079F198C30C77C038F1921
:100B100040000000000002600000000000061FFF0F
:100B2000FFFFFFFFF82020506C616E6E657242750A
:100B30006666657242797465733A20002046726574
:100B400065204D656D6F72793A2000436F6D706955
:100B50006C65643A204D6172203231203230313878
:100B60000A00207C20417574686F723A20286E6FED
:100B70006E652C2064656661756C7420636F6E66AB
:100B80006967290A00323031372D31322D32352054
:100B900031323A303000204C6173742055706461FA
:100BA0007465643A2000312E312E380A004D61728E
:100BB0006C696E0020536F667477617265205265B0
:100BC0007365740A00205761746368646F6720520C
:100BD000657365740A002042726F776E206F7574BA
:100BE0002052657365740A002045787465726E61E1
:100BF0006C2052657365740A00506F77657255708A
:100C00000A0073746172740A006572726F722077E1
:100C1000726974696E6720746F2066696C650A007A
:100C2000456E6473746F70732025632025632025DF
:100C30006320256300205A3A0020593A0020583A90
:100C400000656E6473746F7073206869743A200075
:100C5000446F6E6520736176696E672066696C65A6
:100C60002E0A004D32390056652D6A65726B0056AA
:100C7000652D6A65726B0056652D6A65726B00564C
:100C80007A2D6A65726B00567A2D6A65726B005612
:100C9000792D6A65726B0056792D6A65726B005604
:100CA000792D6A65726B0056782D6A65726B0056F5
:100CB000782D6A65726B0056782D6A65726B004DEF
:100CC0006F74696F6E004573746570732F6D6D007E
:100CD0004573746570732F6D6D005A73746570730E
:100CE0002F6D6D005A73746570732F6D6D0059739D
:100CF000746570732F6D6D005973746570732F6D0B
:100D00006D005873746570732F6D6D005873746542
:100D100070732F6D6D004D6F74696F6E0053746545
:100D200070732F6D6D004A65726B00416363656C73
:100D300065726174696F6E0056656C6F6369747972
:100D4000005A204F6666736574005A204F666673BA
:100D5000657400436F6E74726F6C0046696C2E2070
:100D60004469612E0046696C2E204469612E004F53
:100D70006666004F6E20004520696E206D6D330061
:100D8000436F6E74726F6C0043616E6E6F7420659A
:100D90006E746572207375626469723A2000022E67
:100DA0002E004D61696E0020746F6F206C6F6E674E
:100DB00020657874727573696F6E207072657665E0
:100DC0006E7465640A0020636F6C642065787472C9
:100DD0007573696F6E2070726576656E7465640AEE
:100DE000004C696E65204E756D62657220697320D6
:100DF0006E6F74204C617374204C696E65204E7563
:100E00006D6265722B312C204C617374204C696EBD
:100E1000653A20004B494C4C45442E200053544F1A
:100E2000505045442E20005072696E7465722073D4
:100E3000746F707065642064756520746F206572CE
:100E4000726F72732E20466978207468652065720F
:100E5000726F7220616E6420757365204D39393967
:100E600020746F20726573746172742E202854652B
:100E70006D70657261747572652069732072657337
:100E800065742E20536574206974206166746572E0
:100E90002072657374617274696E67290A004E6FFF
:100EA00020436865636B73756D2077697468206C87
:100EB000696E65206E756D6265722C204C6173746D
:100EC000204C696E653A2000636865636B73756DCD
:100ED000206D69736D617463682C204C617374209C
:100EE0004C696E653A20004D313130004D33310090
:100EF00053442072656164206572726F720A004407
:100F00006F6E65207072696E74696E672066696CB9
:100F1000650A0020496E76616C6964206578747298
:100F200075646572200000000000000000000000F1
:100F30000000000057430000C843000034435354EE
:100F40004F505045442E20005072696E74657220D7
:100F500073746F707065642064756520746F2065AC
:100F600072726F72732E20466978207468652065EE
:100F700072726F7220616E6420757365204D39390D
:100F80003920746F20726573746172742E20285436
:100F9000656D706572617475726520697320726524
:100FA0007365742E205365742069742061667465BE
:100FB000722072657374617274696E67290A0053D6
:100FC000544F502063616C6C656420626563617589
:100FD0007365206F6620424C546F7563682065729C
:100FE000726F72202D20726573746172742077693C
:100FF0007468204D3939390A0042696C696E65613F
:1010000072204C6576656C696E6720477269643A38
:101010000A007C3C3E5E2B3D3F2F5B5D3B2C2A2231
:101020005C004572726F722077726974696E672016
:10103000746F20454550524F4D210A00290A002067
:1010400062797465733B2063726320005365747426
:10105000696E67732053746F7265642028002028BE
:1010600063616C63756C6174656429210A002021D9
:101070003D2000454550524F4D20435243206D695D
:10108000736D61746368202D202873746F726564BA
:10109000292000290A002062797465733B2063725D
:1010A0006320002073746F726564207365747469C3
:1010B0006E677320726574726965766564202800B6
:1010C000204D61726C696E3D563437290A002845FF
:1010D0004550524F4D3D00454550524F4D2076658D
:1010E0007273696F6E206D69736D6174636820003F
:1010F00053746F7720424C546F756368004D3238DB
:101100003020503020533930004465706C6F7920A6
:10111000424C546F756368004D3238302050302097
:1011200053313000424C546F7563682053656C66D0
:101130002D54657374004D323830205030205331B7
:10114000323000526573657420424C546F75636889
:10115000004D3238302050302053313630004D6150
:10116000696E005072696E742070617573656400F9
:10117000005072696E742061626F72746564005011
:1011800072696E742066726F6D2053440053746FE1
:1011900070207072696E7400526573756D65207091
:1011A00072696E74004E6F20534420636172640054
:1011B0005061757365207072696E7400436F6E7450
:1011C000726F6C00507265706172650054756E6567
:1011D00000496E666F2073637265656E00466C6FC2
:1011E0007700466C6F770046616E207370656564AA
:1011F0000046616E2073706565640042656400425C
:101200006564004E6F7A7A6C65004E6F7A7A6C6511
:10121000005370656564005370656564004D6169D5
:101220006E005072656865617420504C41204265C3
:1012300064005072656865617420504C4120456EB1
:1012400064005072656865617420504C41005072B2
:101250006570617265005072656865617420414215
:101260005320456E64005072656865617420414288
:101270005320426564005072656865617420414284
:1012800053005072657061726500000021002400F7
:1012900027002A002D003000330001010000040166
:1012A00007010A0100002200250028002B002E0063
:1012B0003100340002010000050108010B010000AB
:1012C00020002300260029002C002F0032000001FE
:1012D00000000301060109010505050507050808C9
:1012E0000808020202020A0A0808040404040101B0
:1012F00001010101010103030303030303030407C5
:1013000007070C0C0C0C0C0C0C0C0202020206065B
:101310000606060606060B0B0B0B0B0B0B0B01024E
:1013200010202008081020401020408002010201F7
:1013300008040201010204081020408080402010AF
:101340000804020180040201804020100804020108
:101350000804020101020408102040800102040870
:101360001020408000000A0B02090C0D0E08070334
:101370000401000000000000000000000000000068
:10138000000000000000000000000000000000005D
:10139000121110000000000000000000000000001A
:1013A00000000000000000000000496E69746961DF
:1013B0006C697A6520454550524F4D00436F6E74FD
:1013C000726F6C00526573746F7265206661696C30
:1013D00073616665004C6F61642073657474696E37
:1013E000677300496E697469616C697A6520454567
:1013F00050524F4D0053746F726520736574746959
:101400006E677300424C546F7563680046696C6187
:101410006D656E74004D6F74696F6E0054656D700C
:1014200065726174757265004D61696E0050726518
:10143000686561742041425320636F6E660050728C
:10144000656865617420504C4120636F6E66005082
:1014500049442D44005049442D44005049442D49ED
:10146000005049442D49005049442D5000504944F2
:101470002D5000200820466163740020082046613A
:101480006374002008204D6178002008204D6178A9
:10149000002008204D6178002008204D696E002052
:1014A00008204D696E002008204D696E004F666669
:1014B000004F6E20004175746F74656D7000466159
:1014C0006E2073706565640046616E20737065659B
:1014D000640042656400426564004E6F7A7A6C6510
:1014E000004E6F7A7A6C6500436F6E74726F6C0099
:1014F00053746F72652073657474696E677300420C
:10150000656400426564004E6F7A7A6C65004E6FC8
:101510007A7A6C650046616E20737065656400467A
:10152000616E2073706565640054656D70657261ED
:101530007475726500627573793A207061757365B0
:101540006420666F7220696E7075740A006275732C
:10155000793A2070617573656420666F72207573C7
:1015600065720A00627573793A2070726F636573F1
:1015700073696E670A004B494C4C45442E20004B62
:10158000494C4C20636175736564206279204B4936
:101590004C4C20627574746F6E2F70696E0A004B2C
:1015A000494C4C45442E20004B494C4C20636175FE
:1015B00073656420627920746F6F206D7563682095
:1015C000696E6163746976652074696D65202D208C
:1015D00063757272656E7420636F6D6D616E643ACF
:1015E0002000506C656173652072657365740050EE
:1015F00052494E5445522048414C54454400507283
:10160000696E7465722068616C7465642E206B6904
:101610006C6C28292063616C6C6564210A00656E1E
:101620007175657565696E67202200000000000015
:1016300000000000000000555505425555054200C8
:10164000002040000000005761726E696E673A200A
:10165000486F6D696E672042756D702044697669C8
:10166000736F72203C20310A000202040000A04087
:101670000000A04000000040000057430000C843A5
:1016800000003443FFFFFF0000211042206330843C
:1016900040A550C660E770088129914AA16BB18CC2
:1016A000C1ADD1CEE1EFF13112100273325222B549
:1016B000529442F772D662399318837BB35AA3BD12
:1016C000D39CC3FFF3DEE36224433420040114E619
:1016D00064C774A44485546AA54BB528850995EE62
:1016E000E5CFF5ACC58DD55336722611163006D729
:1016F00076F6669556B4465BB77AA719973887DFB2
:10170000F7FEE79DD7BCC7C448E5588668A7784070
:1017100008611802282338CCC9EDD98EE9AFF94801
:101720008969990AA92BB9F55AD44AB77A966A7188
:101730001A500A333A122AFDDBDCCBBFFB9EEB7951
:101740009B588B3BBB1AABA66C877CE44CC55C22D8
:101750002C033C600C411CAEED8FFDECCDCDDD2AA1
:10176000AD0BBD688D499D977EB66ED55EF44E1368
:101770003E322E511E700E9FFFBEEFDDDFFCCF1BF1
:10178000BF3AAF599F788F8891A981CAB1EBA10C5C
:10179000D12DC14EF16FE18010A100C230E32004D1
:1017A00050254046706760B9839893FBA3DAB33D38
:1017B000C31CD37FE35EF3B1029012F322D2323521
:1017C00042145277625672EAB5CBA5A89589856E08
:1017D000F54FE52CD50DC5E234C324A01481046671
:1017E00074476424540544DBA7FAB79987B8975F18
:1017F000E77EF71DC73CD7D326F2369106B01657C1
:10180000667676154634564CD96DC90EF92FE9C85F
:1018100099E9898AB9ABA94458654806782768C010
:1018200018E1088238A3287DCB5CDB3FEB1EFBF977
:101830008BD89BBBAB9ABB754A545A376A167AF160
:101840000AD01AB32A923A2EFD0FED6CDD4DCDAAC7
:10185000BD8BADE89DC98D267C076C645C454CA2B0
:101860003C832CE01CC10C1FEF3EFF5DCF7CDF9B57
:10187000AFBABFD98FF89F176E367E554E745E9300
:101880002EB23ED10EF01E3A004361703A0053650D
:101890007474696E672054726176656C204163636D
:1018A000656C65726174696F6E3A2000536574747B
:1018B000696E672052657472616374204163636569
:1018C0006C65726174696F6E3A2000536574746957
:1018D0006E67205072696E7420416363656C657237
:1018E0006174696F6E3A200053657474696E672085
:1018F0005072696E7420616E642054726176656CFA
:1019000020416363656C65726174696F6E3A200093
:10191000205A00205900580020204D61783A2000BC
:10192000205A00205900580020204D696E3A2000AE
:101930004F6E20004F666600536F667420656E64BC
:1019400073746F70733A2000206F7574206F662077
:1019500072616E67650A00536572766F20003A20E7
:101960000020536572766F200020643A0020693AA7
:101970000020703A0023646566696E652020444546
:101980004641554C545F4B64200023646566696E84
:1019900065202044454641554C545F4B6920002347
:1019A000646566696E65202044454641554C545F28
:1019B0004B702000504944204175746F74756E65FA
:1019C0002066696E6973686564212050757420749F
:1019D0006865206C617374204B702C204B6920610A
:1019E0006E64204B6420636F6E7374616E74732039
:1019F00066726F6D2062656C6F7720696E746F2000
:101A0000436F6E66696775726174696F6E2E680ADE
:101A100000504944204175746F74756E652066618D
:101A2000696C6564212074696D656F75740A005472
:101A30004845524D414C2052554E41574159005452
:101A40006865726D616C2052756E617761790048CE
:101A5000656174696E67206661696C6564004865DC
:101A60006174696E67206661696C65640050494401
:101A7000204175746F74756E65206661696C65646C
:101A8000212054656D706572617475726520746F84
:101A90006F20686967680A00204B643A2000204B79
:101AA000693A2000204B703A20000A20436C617391
:101AB00073696320504944200A002054753A20007D
:101AC000204B753A2000206D61783A2000206D6926
:101AD0006E3A200020643A200020626961733A2047
:101AE0000050726F62696E67206661696C65640A96
:101AF0000050726F62696E67206661696C65640090
:101B0000205A3A200020593A200042656420583A71
:101B10002000486F6D652025732573257320666945
:101B2000727374002066697273740A005A00590057
:101B30005800486F6D652000534420636172642033
:101B40006F6B0A006F70656E526F6F74206661690B
:101B50006C65640A00766F6C756D652E696E6974CC
:101B6000206661696C65640A00534420696E69747B
:101B7000206661696C0A0024F4D43050C38E20C200
:101B8000A24017828B7011127A910D816CD90AA82C
:101B900061E108C7586607615143061E4B5D05C1E8
:101BA00045A7041A411104093D98037139310340D6
:101BB00036DB0265339102D4305402802E1D02635D
:101BC0002CEE01752AC501B028A001102781018FD4
:101BD0002564012B244B01E0223401AC211F018D2F
:101BE000200D01801FFC00841EED00971DDF00B852
:101BF0001CD200E61BC600201BBC00641AB200B257
:101C000019A8000A19A0006A189900D1179100407C
:101C1000178B00B516840031167E00B31579003A93
:101C2000157300C7146F0058146A00EE136600881D
:101C300013630025135E00C7125B006C125700157A
:101C4000125400C111510070114F0021114B00D6E8
:101C50001049008D1047004610440002104200C099
:101C60000F4000800F3E00420F3C00060F3B00CBB0
:101C70000E3800930E37005C0E3500270E3400F34B
:101C80000D3200C10D3100900D3000600D2E00327C
:101C90000D2D00050D2C00D90C2B00AE0C29008554
:101CA0000C29005C0C2700350C27000E0C2600E8E0
:101CB0000B2400C40B2400A00B23007D0B23005A2F
:101CC0000B2100390B2100180B2000F80A1F00D946
:101CD0000A1E00BB0A1E009D0A1D00800A1D00632B
:101CE0000A1C00470A1B002C0A1B00110A1A00F7E5
:101CF000091A00DD091900C4091900AB091900927D
:101D00000917007B091800630917004C09160036F3
:101D1000091600200916000A091500F5081500E04B
:101D2000081400CC081400B8081400A4081400908B
:101D30000813007D0812006B0813005808120046B3
:101D400008120034081100230811001208110001C4
:101D5000081100F0071000E0071000D0071000C0C5
:101D6000071000B0070F00A107100091070E0083B5
:101D7000070F0074070F0065070E0057070E004994
:101D8000070E003B070D002E070E0020070D001365
:101D9000070D0006070D00F9060C00ED060D00E02A
:101DA000060C00D4060C00C8060C00BC060C00B0E3
:101DB000060C00A4060B0099060C008D060B008291
:101DC000060B0077060B006C060B0061060A005735
:101DD000060B004C060A0042060A0038060A002ECE
:101DE000060A0024060A001A060A0010060900075F
:101DF000060A00FD050900F4050900EB050900E2EB
:101E0000050900D9050900D0050900C7050900BE6C
:101E1000050900B5050800AD050800A50509009CE9
:101E2000050800940508008C050800840508007C5E
:101E3000050800740508006C050700650508005DCD
:101E4000050700560508004E050700470507004036
:101E500005080038050700310507002A050700239B
:101E60000507001C050600160507000F05070008FA
:101E700005060002050700FB040600F5040700EE56
:101E8000040600E8040600E2040700DB040600D5AF
:101E9000040600CF040600C9040600C3040600BD02
:101EA000040600B7040600B1040500AC040600A651
:101EB000040600A00405009B04060095040500909C
:101EC0000406008A04050085040500800406007AE3
:101ED00004050075040500700405006B0405006628
:101EE000040500610405005C040500570405005268
:101EF0000405004D04050048040500430405003EA8
:101F00000404003A04050035040500300404002CE4
:101F100004050027040400230405001E0404001A1D
:101F200004040016040500110404000D0404000953
:101F30000405000404040000040400FC030400F889
:101F4000030400F4030400F0030400EC030400E8BD
:101F5000030400E4030400E0030400DC030400D8ED
:101F6000030400D4030400D0030400CC030400C81D
:101F7000030300C503030024F404D9201BC40C5C34
:101F80000E9804C4095F0265077101F405F900FBAE
:101F900004B30048048700C10369005803550003D7
:101FA000034500BE023A008402310053022A002990
:101FB00002250004022000E4011C00C8011900AF42
:101FC00001170098011400840113007101100061D1
:101FD00001100051010E0043010D0036010B002BD2
:101FE000010B0020010B00150109000C0109000381
:101FF000010800FB000800F3000800EB000700E404
:10200000000600DE000600D8000600D2000600CC64
:10201000000500C7000500C2000500BD000400B9AE
:10202000000400B5000400B1000400AD000400A9E4
:10203000000400A5000300A20003009F0004009B11
:102040000003009800030095000200930003009035
:102050000003008D0002008B000300880002008650
:1020600000020084000300810002007F0002007D66
:102070000002007B00020079000200770001007678
:102080000002007400020072000100710002006F83
:102090000002006D0001006C0002006A000100698E
:1020A0000002006700010066000100650001006495
:1020B0000002006200010061000100600001005F99
:1020C0000002005D0001005C0001005B0001005A9D
:1020D000000100590001005800010057000100569E
:1020E000000100550001005400010053000000539E
:1020F0000001005200010051000100500001004F9A
:102100000001004E0000004E0001004D0001004C97
:102110000001004B0000004B0001004A0001004993
:10212000000100480000004800010047000100468F
:102130000000004600010045000000450001004489
:102140000001004300000043000100420000004283
:102150000001004100000041000100400001003F7B
:102160000000003F0001003E0000003E0001003D75
:102170000000003D0001003C0000003C0000003C6D
:102180000001003B0000003B0001003A0000003A63
:10219000000100390000003900010038000000385B
:1021A0000000003800010037000000370001003651
:1021B0000000003600000036000100350000003548
:1021C000000000350001003400000034000000343D
:1021D0000001003300000033000000330001003232
:1021E0000000003200000032000100310000003128
:1021F000000000310001003000000030000000301D
:102200000001002F0000002F0000002F0000002F11
:102210000001002E0000002E0000002E0001002D05
:102220000000002D0000002D0000002D0001002CFA
:102230000000002C0000002C0000002C0001002BEE
:102240000000002B0000002B0000002B0001002AE2
:102250000000002A0000002A0000002A00010029D6
:1022600000000029000000290000002900000029CA
:1022700000010028000000280000002800000028BD
:1022800000000028000100270000002700000027B0
:1022900000000027000000270001002600000026A3
:1022A0000000002600000026000000260001002596
:1022B000000000250000002500000025000000258A
:1022C000000000250001002400000024000000247C
:1022D000000000240000002400010023000000236F
:1022E0000000002300000023000000230000002362
:1022F0000000002300010022000000220000002254
:102300000000002200000022000000220001002145
:102310000000002100000021000000210000002139
:10232000000000210000002100010020000000202A
:10233000000000200000002000000020000000201D
:1023400000000020000000200001001F0000001F0E
:102350000000001F0000001F0000001F0000001F01
:102360000000001F0001001E0000001E0000001EF3
:102370000000001E0000004D383420582059205A1B
:1023800020450048617264636F646564204465663B
:1023900061756C742053657474696E6773204C6F3B
:1023A000616465640A004C0400004C040000640091
:1023B00000001027000000004843000048430000D0
:1023C000A0400000C8410000A0420000A042000060
:1023D000C7430000484420204D383531205A005A68
:1023E0002D50726F6265204F666673657420286D8C
:1023F0006D293A0A0020440020490020204D333046
:10240000312050005049442073657474696E6773BD
:102410003A0A0020460020420020480020204D318A
:1024200034352053004D6174657269616C206865B4
:102430006174757020706172616D65746572733A54
:102440000A00205A0020204D3432302053004175BC
:10245000746F20426564204C6576656C696E673ADE
:102460000A00205A0020590020204D3230362058D2
:1024700000486F6D65206F66667365743A0A0020C8
:102480004500205A002059002058002042002054C6
:102490000020204D323035205300416476616E6358
:1024A00065643A20533C6D696E5F66656564726170
:1024B00074653E20543C6D696E5F74726176656C24
:1024C0005F66656564726174653E20423C6D696E4D
:1024D0005F7365676D656E745F74696D655F757355
:1024E0003E20583C6D61785F78795F6A65726B3E1B
:1024F000205A3C6D61785F7A5F6A65726B3E204559
:102500003C6D61785F655F6A65726B3E0A002054BE
:102510000020520020204D323034205000416363AF
:10252000656C65726174696F6E2028756E6974736D
:102530002F7332293A20503C7072696E745F616368
:1025400063656C3E20523C726574726163745F61B6
:102550006363656C3E20543C74726176656C5F61A8
:102560006363656C3E0A00204500205A0020590034
:1025700020204D3230312058004D6178696D756DE5
:1025800020416363656C65726174696F6E202875A4
:102590006E6974732F7332293A0A00204500205A5D
:1025A0000020590020204D3230332058004D6178F2
:1025B000696D756D20666565647261746573202848
:1025C000756E6974732F73293A0A00204500205AEA
:1025D0000020590020204D39322058005374657076
:1025E000732070657220756E69743A0A0020204D60
:1025F0003230302044300A0020204D323030204428
:10260000002044697361626C65640A0046696C610C
:102610006D656E742073657474696E67733A00201B
:10262000204D3134392043203B20556E697473208E
:10263000696E2043656C736975730A002020473208
:1026400031202020203B20556E69747320696E2054
:102650006D6D0A0025753A253032750025303275CA
:102660003A253032750025756420253032753A25BB
:10267000303275005A00590058000920000000004F
:102680000000000000000000007FFFE000000000EC
:1026900000000000000000007000E00000000000EA
:1026A0000000000000000061F86000000000000071
:1026B00000000000000041F82000000000000000C1
:1026C000000000000040F0200000000000000000BA
:1026D000000000004060200000000000000000003A
:1026E0000000005801A07F800000000000000041B1
:1026F00004005C63A0FFC000000000000000208216
:10270000005EF7A0FFC00000000000000020820073
:102710005EF7A0FFC0000000000000004104005C64
:1027200063A07F80000000000000008208005801C4
:10273000A07F800000000000000104100040602025
:10274000FFC00000000000000104100040F020FF66
:10275000C00000000000000082080041F820FFC017
:102760000000000000000041040061F8603F00002C
:102770000000000000000000007000E01E000000EB
:102780000000000001FFFF807FFFE00C0000000060
:1027900000000001FFFF80000000000000000000BA
:1027A0000000000000007FFFE000000000000000CB
:1027B00000000000007000E00000000000000000C9
:1027C00000000000630C600000000000000000003A
:1027D000000000470E200000000000000000000084
:1027E00000004F0F2000000000000000000000006B
:1027F000005F0FA0000000000000000000000000CB
:102800005E07A07F8000000000000000410400403F
:102810006020FFC00000000000000020820040F0A7
:1028200020FFC00000000000000020820040F020D7
:10283000FFC0000000000000004104004060207F55
:1028400080000000000000008208005E07A07F807A
:10285000000000000000010410005F0FA0FFC00096
:102860000000000000010410004F0F20FFC0000016
:102870000000000000820800470E20FFC00000009A
:1028800000000000410400630C603F0000000000F5
:102890000000000000007000E01E000000000000CA
:1028A0000001FFFF807FFFE00C000000000000003F
:1028B00001FFFF8000000000060900FE000000008C
:1028C0000001090008FE000005080806000040F0AD
:1028D000C88888987810050808060000C0F888881D
:1028E000888888F80505050600012030F8302005A5
:1028F00008080600002070F820202020E0050909C3
:102900000600FF2070A8A8B888887020050909066D
:1029100000FFE080C0B0A82830282805090906007B
:10292000FFF8A88888888888A8F8050A0A0600FEA3
:10293000205050505088A8A8887003030306000355
:1029400040A0406175746F25692E67004D323400D8
:102950004D32332025730057726974696E67207495
:102960006F2066696C653A20006F70656E20666145
:10297000696C65642C2046696C653A20006F70654F
:102980006E206661696C65642C2046696C653A202E
:102990000046696C652073656C65637465640A0044
:1029A0002053697A653A200046696C65206F70652E
:1029B0006E65643A20006F70656E206661696C65B3
:1029C000642C2046696C653A20002066696C653A83
:1029D0002000646F696E67006672657368004E6FF1
:1029E000772000454E4420535542524F5554494E8E
:1029F000450A002220706F73002220706172656E9C
:102A0000743A2200535542524F5554494E45204383
:102A1000414C4C207461726765743A22004B494CFA
:102A20004C45442E2000747279696E6720746F20C3
:102A300063616C6C207375622D67636F64652066DB
:102A4000696C6573207769746820746F6F206D619D
:102A50006E79206C6576656C732E204D4158206C24
:102A60006576656C2069733A004572726F723A0040
:102A700043616E6E6F74206F70656E207375626453
:102A8000697220006563686F3A004D343238004D3A
:102A9000323830205030205331363000424C546FA1
:102AA0007563682053656C662D54657374004D32F0
:102AB0003830205030205331323000507265686514
:102AC0006174204142530050726568656174205002
:102AD0004C4100436F6F6C646F776E005265736595
:102AE0007420424C546F7563680044697361626C72
:102AF00065207374657070657273004D38340053CF
:102B0000657420686F6D65206F6666736574730009
:102B1000426564204C6576656C696E6700473238A3
:102B20000A473239004175746F20686F6D65004740
:102B30003238004D6F76652061786973004D6169A8
:102B40006E004D6F76652058004D6F7665205900F8
:102B50004D6F7665205A0045787472756465720011
:102B60004D6F766520302E316D6D004D6F7665208E
:102B7000316D6D004D6F76652031306D6D004D6F9C
:102B80007665206178697300457874727564657242
:102B9000004D6F7665205A004D6F76652059004DC7
:102BA0006F76652058004578747275646572004DC3
:102BB0006F7665205A004D6F76652059004D6F760F
:102BC0006520580050726570617265000000000059
:102BD000300E0100C00E0A00500F1400D00F1E006E
:102BE00060102800E010320070113C00F011460027
:102BF0007012500000135A008013640000146E001D
:102C0000901478001015820090158C001016960014
:102C10009016A0001017AA009017B4001018BE005C
:102C20009018C8001019D2009019DC00101AE600A4
:102C3000801AF000001BFA00801B0401F01B0E013B
:102C4000701C1801F01C2201601D2C01E01D3601D2
:102C5000501E4001D01E4A01401F5401B01F5E01AA
:102C600030206801A020720110217C019021860192
:102C7000002290016026F401902A5802802EBC02A6
:102C800050322003E03584035039E803803C4C0483
:102C900048656174696E67206661696C65640048A7
:102CA000656174696E67206661696C65640048657A
:102CB0006174696E67206661696C6564004865616E
:102CC00074696E67206661696C65640070012C012F
:102CD00090012701B0012201C0011D01F00118017E
:102CE0001002130130020E0160020901900204017A
:102CF000C002FF000003FA004003F5008003F0006B
:102D0000D003EB002004E6007004E100E004DC00E6
:102D10004005D700C005D2004006CD00D006C8004F
:102D20008007C3003008BE00F008B900C009B40035
:102D3000B00AAF00B00BAA00D00CA500000EA00096
:102D4000500F9B00C01096005012910000148C0090
:102D5000C0158700B0178200B0197D00D01B780025
:102D6000001E730040206E0090226900F024640071
:102D700040275F0090295A00E02B5500102E50008C
:102D800020304B0010324600E033410090353C00CB
:102D90001037370070383200A0392D00B03A2800C3
:102DA000A03B2300603C1E00103D1900903D140024
:102DB000103E0F00703E0A00C03E0500003F0000BC
:102DC000403FFBFF803FF6FFC03FF1FF54484552B4
:102DD0004D414C2052554E4157415900546865723F
:102DE0006D616C2052756E61776179004572723A3F
:102DF000204D494E54454D50204245440045727285
:102E00003A204D494E54454D50004D494E54454D84
:102E10005020747269676765726564004572723A22
:102E2000204D415854454D50204245440045727252
:102E30003A204D415854454D50004D415854454D50
:102E4000502074726967676572656400202F0020E6
:102E500042403A0020403A00436172642072656D3E
:102E60006F766564004361726420696E7365727485
:102E7000656400526573656E643A20006F6B0020D4
:102E8000746F6F206C6F6E672065787472757369EC
:102E90006F6E2070726576656E7465640A002063DB
:102EA0006F6C6420657874727573696F6E207072D0
:102EB0006576656E7465640A0020706F7369746965
:102EC0006F6E206F7574206F662072616E67652E5D
:102ED0000A003F50726F6265200020284452595208
:102EE000554E2900473239204175746F2042656480
:102EF000204C6576656C696E670028422961636BBA
:102F000000284629726F6E74002852296967687418
:102F100000284C29656674003F2856296572626F47
:102F20007365206C6576656C20697320696D706CC3
:102F300061757369626C652028302D34292E0A0072
:102F4000426164205A2076616C75650A004E6F20DC
:102F500062696C696E65617220677269640A00203B
:102F60005A3A0020593A0020436F756E7420583A3F
:102F70000020453A00205A3A0020593A00583A00B9
:102F80005654726176206D696E00565472617620D7
:102F90006D696E005654726176206D696E00566DD3
:102FA000696E00566D696E00566D696E00566D61F2
:102FB00078204500566D6178204500566D61782077
:102FC0004500566D6178205A00566D6178205A0090
:102FD000566D6178205A00566D6178205900566D03
:102FE0006178205900566D6178205900566D6178DE
:102FF000205800566D6178205800566D6178205831
:10300000004D6F74696F6E00416D6178204500411D
:103010006D6178204500416D6178205A00416D61F5
:1030200078205A00416D6178205900416D61782007
:103030005900416D6178205800416D617820580039
:10304000412D74726176656C00412D7472617665F4
:103050006C00412D7265747261637400412D72655C
:10306000747261637400416363656C0041636365FE
:103070006C004D6F74696F6E0000060900FE070159
:10308000920321207FFF07FF07FF000000060000DA
:103090000107070602008080808080008003020212
:1030A000060105A0A00507070600005050F850F8DB
:1030B00050500507070600002078A07028F0200572
:1030C0000707060000C0C81020409818050707062B
:1030D00000006090A040A89068020303060104C0AD
:1030E00040800307070601002040808080402003C5
:1030F00007070601008040202020408005050506C6
:10310000000120A870A8200505050600012020F870
:1031100020200203030602FFC040800501010600D3
:1031200003F8020202060200C0C005050506000100
:1031300008102040800507070600007088888888EE
:10314000887003070706010040C040404040E0058A
:103150000707060000708808708080F805070706DA
:103160000000F81020100808F005070706000010FE
:10317000305090F81010050707060000F880F0089E
:10318000088870050707060000708080F088887046
:10319000050707060000F808102020202005070773
:1031A0000600007088887088887005070706000090
:1031B00070888878080870020505060200C0C00003
:1031C000C0C00206060602FFC0C000C0408004075F
:1031D0000706000010204080402010050303060071
:1031E00002F800F804070706010080402010204084
:1031F00080050707060000708808102000200507DA
:103200000706000070880868A8A870050707060070
:1032100000708888F8888888050707060000F0880D
:1032200088F08888F0050707060000708880808095
:103230008870050707060000F08888888888F005F0
:103240000707060000F88080F08080F80507070671
:103250000000F88080F0808080050707060000707D
:103260008880B8888870050707060000888888F875
:10327000888888010707060200808080808080801F
:1032800005070706000038101010109060050707AA
:103290000600008890A0C0A09088050707060000DF
:1032A000808080808080F805070706000088D8A805
:1032B000888888880507070600008888C8A8988835
:1032C00088050707060000708888888888700507C9
:1032D00007060000F08888F0808080050707060058
:1032E0000070888888A89068050707060000F088A5
:1032F00088F0A09088050707060000788080700895
:1033000008F0050707060000F820202020202005EF
:1033100007070600008888888888887005070706E0
:1033200000008888888888502005070706000088E4
:1033300088888888A85005070706000088885020DC
:1033400050888805070706000088888850202020BC
:10335000050707060000F80810204080F80307075B
:10336000060100E08080808080E005050506000100
:103370008040201008030707060100E020202020DD
:1033800020E0050303060004205088050101060023
:1033900000F802020206020580400505050600004D
:1033A00070087888780507070600008080B0C88814
:1033B00088F0050505060000708080887005070705
:1033C000060000080868988888780505050600004A
:1033D0007088F880700507070600003048E040401C
:1033E00040400506060600FF7088887808700507CB
:1033F000070600008080B0C8888888010707060299
:1034000000800080808080800308080601FF200083
:1034100020202020A040040707060000808090A004
:10342000C0A090030707060100C04040404040E0B4
:10343000050505060000D0A8A8A8A80505050600F2
:1034400000B0C8888888050505060000708888884F
:10345000700506060600FFF08888F08080050606E5
:103460000600FF788888780808050505060000B082
:10347000C880808005050506000070807008F00493
:1034800007070600004040E04040403005050506C3
:1034900000008888889868050505060000888888E7
:1034A00050200505050600008888A8A850050505D8
:1034B00006000088502050880506060600FF888810
:1034C00088780870050505060000F8102040F8030C
:1034D0000707060100204040804040200107070602
:1034E00002008080808080808003070706010080C2
:1034F0004040204040800502020600026890000023
:10350000000600006265640A002C207379737465FC
:103510006D2073746F7070656421204865617465F7
:10352000725F49443A200000BE00BC0011241FBE57
:10353000CFEFD1E2DEBFCDBF00E00CBF14E0A0E0D2
:10354000B2E0EAEFF8E202E00BBF02C007900D9292
:10355000A030B107D9F725E1A0E0B4E001C01D9289
:10356000AD3FB207E1F71AE1C5E9DAE100E006C0D4
:1035700021970109802FFE010F94E113C439D1076F
:1035800080E00807A9F70E94C6FB0D946C140C9408
:1035900000002F923F924F925F926F927F928F9294
:1035A0009F92AF92BF92CF92DF92EF92FF920F93D2
:1035B0001F93CF93DF93CDB7DEB7C657D1090FB6B0
:1035C000F894DEBF0FBECDBF81E090E09093A507D9
:1035D0008093A407809127118D3411F40C94B323A8
:1035E000843511F40C946131873411F00C949B31C3
:1035F00080912511909126118C31910509F444C6D2
:10360000B4F4843091053CF482309105B4F597FF11
:103610002DC00C94B2318430910509F4EFC54A975E
:1036200011F00C94B2310E949A3A0C94B2318A3261
:10363000910509F4F1C74CF48D31910509F4FAC6EE
:103640004E9709F4FBC60C94B2318B35910509F401
:1036500063C78C35910509F464C78A35910511F06B
:103660000C94B231109205040C94B2318091B802DE
:1036700081110C94B9310C94B2312091B8022223FB
:1036800011F40C94B23111E0029709F010E00E949D
:103690003E6282E50E943D39882309F45CC10E94A4
:1036A000DB386B017C01409010085090110860904D
:1036B0001208709013082091140830911508409159
:1036C00016085091170823962CAF3DAF4EAF5FAF51
:1036D00023978091340890913508A0913608B091D5
:1036E000370827968CAF9DAFAEAFBFAF279720911D
:1036F00038083091390840913A0850913B08639658
:103700002CAF3DAF4EAF5FAF639720E030E0A90133
:10371000C701B6010F94AD0C882309F455C5A30168
:10372000920127966CAD7DAD8EAD9FAD27970F941E
:10373000AD0C811111C023962CAD3DAD4EAD5FADEA
:10374000239763966CAD7DAD8EAD9FAD63970F945F
:10375000AD0C882309F438C520E030E0A901C70189
:10376000B6010F94AD0C881F8827881F18130BC053
:1037700080E090E0A0E8BFE36B968CAF9DAFAEAF6A
:10378000BFAF6B970AC020E030E040E85FEB6B967C
:103790002CAF3DAF4EAF5FAF6B97A3019201279661
:1037A0006CAD7DAD8EAD9FAD27970F94E5102F9634
:1037B0006CAF7DAF8EAF9FAF2F9723962CAD3DADF5
:1037C0004EAD5FAD239763966CAD7DAD8EAD9FAD75
:1037D00063970F94E51067966CAF7DAF8EAF9FAF88
:1037E00067972F962CAD3DAD4EAD5FAD2F97CA01BB
:1037F000B9010F94120D4B015C0167962CAD3DADE4
:103800004EAD5FAD6797CA01B9010F94120D9B01D0
:10381000AC01C501B4010F94E6100F9451132B961F
:103820006CAF7DAF8EAF9FAF2B9720E030E040E0D4
:103830005FE30F94120D4B015C01A7019601C701D4
:10384000B6010F94120D6B017C01A5019401C50115
:10385000B4010F94120D9B01AC01C701B6010F9486
:10386000E5100F9451139B01AC016B966CAD7DADCF
:103870008EAD9FAD6B970F94120D4B015C01279697
:103880002CAD3DAD4EAD5FAD2797C301B2010F9496
:10389000E61020E030E040E05FE30F94120D6B0192
:1038A0007C0167966CAD7DAD8EAD9FAD67979058EE
:1038B0002B962CAD3DAD4EAD5FAD2B970F94C21145
:1038C0009B01AC01C501B4010F94120D9B01AC0129
:1038D000C701B6010F94E610A30192010F94E51001
:1038E0006B017C0163962CAD3DAD4EAD5FAD639732
:1038F00023966CAD7DAD8EAD9FAD23970F94E610F2
:1039000020E030E040E05FE30F94120D2B013C011A
:103910002B962CAD3DAD4EAD5FAD2B972F966CAD7C
:103920007DAD8EAD9FAD2F970F94C2119B01AC0161
:10393000C501B4010F94120D9B01AC01C301B2018A
:103940000F94E61023962CAD3DAD4EAD5FAD2397A1
:103950000F94E51014C089E40E943D39882329F0B2
:103960000E94DB386B017C0103C0C12CD12C760195
:103970008AE40E943D398823F9F00E94DB3863967F
:103980006CAF7DAF8EAF9FAF639720E030E0A901B1
:10399000C701B6010F94AD0C81111EC020E030E0CC
:1039A000A90163966CAD7DAD8EAD9FAD63970F940D
:1039B000AD0C811111C008C420E030E0A901C7019D
:1039C000B6010F94AD0C882309F4FEC363961CAEB8
:1039D0001DAE1EAE1FAE6397D701C601B058239629
:1039E0008CAF9DAFAEAFBFAF239763962CAD3DAD0F
:1039F0004EAD5FAD6397505827962CAF3DAF4EAF9D
:103A00005FAF27979C01AD01BC01CD010F94120D52
:103A10004B015C0127962CAD3DAD4EAD5FAD2797B8
:103A2000CA01B9010F94120D9B01AC01C501B4018B
:103A30000F94E6100F945113AB966CAF7DAF8EAF21
:103A40009FAFAB978091100890911108A091120838
:103A5000B09113082B968CAF9DAFAEAFBFAF2B9735
:103A6000A7019601BC01CD010F94E6106B966CAFD7
:103A70007DAF8EAF9FAF6B972091140830911508E2
:103A8000409116085091170867962CAF3DAF4EAF86
:103A90005FAF679763962CAD3DAD4EAD5FAD63975D
:103AA00067966CAD7DAD8EAD9FAD67970F94E610B8
:103AB0006F966CAF7DAF8EAF9FAF6F9780913408DC
:103AC00090913508A0913608B0913708A3968CAF35
:103AD0009DAFAEAFBFAFA3976B962CAD3DAD4EADD6
:103AE0005FAD6B97BC01CD010F94E5106B017C01BC
:103AF000209138083091390840913A0850913B089C
:103B0000A7962CAF3DAF4EAF5FAFA7976F962CAD8A
:103B10003DAD4EAD5FAD6F97A7966CAD7DAD8EADF3
:103B20009FADA7970F94E5104B015C018091180899
:103B300090911908A0911A08B0911B08E3968CAFD8
:103B40009DAFAEAFBFAFE3979C01AD0160913C0864
:103B500070913D0880913E0890913F080F94E510C8
:103B60002F966CAF7DAF8EAF9FAF2F9720914008FF
:103B7000309141084091420850914308AF962CAFD4
:103B80003DAF4EAF5FAFAF9780911C0890911D087D
:103B9000A0911E08B0911F08E7968CAF9DAFAEAF05
:103BA000BFAFE797A701960123966CAD7DAD8EADB3
:103BB0009FAD23970F94120D2B013C01A501940199
:103BC00027966CAD7DAD8EAD9FAD27970F94120DEE
:103BD0009B01AC01C301B2010F94E6102B013C0123
:103BE000A501940123966CAD7DAD8EAD9FAD23975D
:103BF0000F94120D4B015C01A701960127966CAD45
:103C00007DAD8EAD9FAD27970F94120D9B01AC013A
:103C1000C501B4010F94E510A30192010F9459114D
:103C20006B017C0120E030E0A9010F94AD0C87FF0F
:103C30000AC02BED3FE049EC50E4C701B6010F94F8
:103C4000E6106B017C01112351F02BED3FE049ECB4
:103C500050E4C701B6010F94E5106B017C0120E030
:103C600030E0A901C701B6010F94AD0C811128C045
:103C7000A3962CAD3DAD4EAD5FADA3972B966CAD2D
:103C80007DAD8EAD9FAD2B970F94AD0C811118C0FB
:103C9000A7962CAD3DAD4EAD5FADA79767966CADC9
:103CA0007DAD8EAD9FAD67970F94AD0C811108C0AF
:103CB000EBEDCE2EEFE0DE2EE9ECEE2EE0E4FE2E74
:103CC000AB962CAD3DAD4EAD5FADAB97C701B60128
:103CD0000F94120D9B01AC010F94120D4B015C016E
:103CE0002F962CAD3DAD4EAD5FAD2F97CA01B901FA
:103CF0000F94120D9B01AC01C501B4010F94E610A5
:103D00000F9451134B015C012FE632E143E85AE373
:103D10000F94AD0C87FD54C2C501B4010F945B1222
:103D20000F942F121B01672B19F422242394312C9A
:103D3000B10180E090E00F94B10C4B015C019B015C
:103D4000AC01C701B6010F94C2112B966CAF7DAFC9
:103D50008EAF9FAF2B97A50194012F966CAD7DADD3
:103D60008EAD9FAD2F970F94C211AB966CAF7DAF08
:103D70008EAF9FAFAB97E7962CAD3DAD4EAD5FAD2F
:103D8000E797AF966CAD7DAD8EAD9FADAF970F94BD
:103D9000E510A50194010F94C211AF966CAF7DAFF1
:103DA0008EAF9FAFAF972B962CAD3DAD4EAD5FADB7
:103DB0002B97CA01B9010F94120D20E030E040E0CA
:103DC0005FE30F94120D9B01AC0160E070E080E8AE
:103DD0009FE30F94E510A3966CAF7DAF8EAF9FAFBE
:103DE000A397E3962CAD3DAD4EAD5FADE39729872C
:103DF0003A874B875C87E7968CAD9DADAEADBFAD86
:103E0000E7978D879E87AF87B88B60912702709167
:103E10002802072E000C880B990B0F94B30C2091ED
:103E20003E0230913F0240914002509141020F9476
:103E3000120D2AE037ED43E25CE30F94120D6BAFF5
:103E40007CAF8DAF9EAF0E94D8869B01AC012853FA
:103E50003F4F4F4F5F4FA7962CAF3DAF4EAF5FAF79
:103E6000A7974FAC21965FAC219722966FAC229713
:103E700023967FAC239741E050E065965FAF4EAF4D
:103E8000659759E12C965FAF2C976596AEADBFADA7
:103E90006597A215B30509F458C10E94E6D10E94A6
:103EA000D886DC01CB01A7962CAD3DAD4EAD5FAD04
:103EB000A797821B930BA40BB50BB7FD10C00E94F4
:103EC000D8869B01AC0128533F4F4F4F5F4FA796B9
:103ED0002CAF3DAF4EAF5FAFA7970E94BE972C9619
:103EE0003FAD2C9731502C963FAF2C97332309F4DC
:103EF0004BC0A3962CAD3DAD4EAD5FADA3972796BD
:103F00006CAD7DAD8EAD9FAD27970F94120D6B01FB
:103F10007C012B962CAD3DAD4EAD5FAD2B97B20124
:103F2000C3010F94120DA70196010F94E6107B01B7
:103F30008C01A3962CAD3DAD4EAD5FADA397B20104
:103F4000C3010F94120D4B015C012B962CAD3DADBE
:103F50004EAD5FAD2B9727966CAD7DAD8EAD9FAD11
:103F600027970F94120D9B01AC01C501B4010F946A
:103F7000E5102B013C01C701D80127968CAF9DAFFE
:103F8000AEAFBFAF279761C065964EAD5FAD659789
:103F9000BA0180E090E00F94B10C2B962CAD3DADB2
:103FA0004EAD5FAD2B970F94120D4B015C010F943A
:103FB000BF116B017C01C501B4010F9447134B0184
:103FC0005C01A701960123966CAD7DAD8EAD9FADD2
:103FD00023970F94120D2B013C01A50194016396C8
:103FE0006CAD7DAD8EAD9FAD63970F94120D9B01AF
:103FF000AC01C301B2010F94E6102B013C01A501F5
:10400000940123966CAD7DAD8EAD9FAD23970F943B
:10401000120D4B015C01A701960163966CAD7DAD5D
:104020008EAD9FAD63970F94120D9B01AC01C5013E
:10403000B4010F94E51027966CAF7DAF8EAF9FAFA4
:10404000279759E12C965FAF2C979201A3016B96AD
:104050006CAD7DAD8EAD9FAD6B970F94E61069830F
:104060007A838B839C8327962CAD3DAD4EAD5FAD9F
:1040700027976F966CAD7DAD8EAD9FAD6F970F940A
:10408000E6106D837E838F839887AB962CAD3DAD14
:104090004EAD5FADAB9769857A858B859C850F9416
:1040A000E61069877A878B879C87AF962CAD3DADEC
:1040B0004EAD5FADAF976D857E858F8598890F94E6
:1040C000E6106D877E878F87988B809154028823B6
:1040D00021F0CE0101960E949A96E090B21189815A
:1040E0009A81AB81BC8188A399A3AAA3BBA38D812C
:1040F0009E81AF81B8858CA39DA3AEA3BFA3898504
:104100009A85AB85BC8588A799A7AAA7BBA7CE012E
:1041100080960E945F378E01055C1F4F9E01235FD2
:104120003F4FAE01485D5F4FBE016C5D7F4FCE01DA
:1041300080960E942F6065968EAD9FAD6597019623
:1041400065969FAF8EAF6597A0CEE090B21180913B
:10415000340890913508A0913608B091370888A3AB
:1041600099A3AAA3BBA38091380890913908A09184
:104170003A08B0913B088CA39DA3AEA3BFA3809146
:104180003C0890913D08A0913E08B0913F0888A757
:1041900099A7AAA7BBA7CE0180960E945F378E0180
:1041A000055C1F4F20E438E0AE01485D5F4FBE0163
:1041B0006C5D7F4FCE0180960E942F600E94903AE6
:1041C0000E9467370C94B231E9E6FAE284918F01DC
:1041D0000F5F1F4F882321F00E947237F801F6CF3E
:1041E000E1EEF1E084918F010F5F1F4F882311F4FE
:1041F0000C94B2310E947237F801F4CF80E50E942E
:104200003D39882329F00E9440376B017C0103C0AF
:10421000C12CD12C760183E50E943D39882361F0C1
:104220000E94DB3820E030E04AE754E40F94120D9E
:104230000F942F126B017C010E942EFA8091730261
:10424000811105C060E087EF91E00E94BDF50E94FA
:1042500067378091AD079091AE07A091AF07B091FD
:10426000B007C80ED91EEA1EFB1E0E94D886DC01CC
:10427000CB018C199D09AE09BF09B7FD02C00C9492
:10428000B2310E94BE97F1CF0E942EFA80E00E94C8
:1042900042630E941E6511E01093801288E50E941F
:1042A0000E39E82E89E50E940E39082F8AE50E9412
:1042B0000E39F82EE11004C0011104C0182705C002
:1042C000011102C010E001C0182F0E9449391111DC
:1042D00004C0E11002C00023C1F180E090E0A0E73B
:1042E000B1E480933C0890933D08A0933E08B093BE
:1042F0003F089C01AD0160911808709119088091E8
:104300001A0890911B080F94AD0C87FF0BC01982FF
:104310001A821B821C82BE016F5F7F4F8CE398E084
:104320000E942366111105C0E11003C0011107C0EE
:104330000CC080E090E00E946F951123B9F381E0FA
:1043400090E00E946F95111103C0FF2009F463C033
:1043500080918404882321F08091850481111EC0FE
:1043600060E081E192E00E94BDF5E4E8FAE2849128
:104370008F010F5F1F4F882321F00E947237F801D1
:10438000F6CFE0E0F2E084918F010F5F1F4F8823AA
:1043900009F441C00E947237F801F5CF0E94CC3673
:1043A00080E090E0A6EDB2E4809334089093350865
:1043B000A0933608B093370880E090E0A8E4B3E417
:1043C0008093380890933908A0933A08B0933B083B
:1043D0008091180890911908A0911A08B0911B08B3
:1043E00080933C0890933D08A0933E08B0933F080B
:1043F00019821A821B821C829E012F5F3F4F48E167
:1044000058E068E378E084E398E00E943E6582E04B
:1044100090E00E946F950E94CC3680917F1280932D
:1044200080120E94046583E0809342020E94C1E5ED
:104430000C94B2310E949EE60C94B231C0901008E8
:10444000D0901108E0901208F090130888E50E94BF
:104450003D39811108C020E030E0A901C701B60153
:104460000F94E61002C00E94DB3868A379A38AA3E8
:104470009BA3C0901408D0901508E0901608F09007
:10448000170889E50E943D39811108C020E030E01D
:10449000A901C701B6010F94E61002C00E94DB38E3
:1044A0006B017C0169837A838B839C8388A099A0AC
:1044B000AAA0BBA02FE632E143E85AEBC501B40144
:1044C0000F940C1387FF02C00C94B23122E430E049
:1044D00046E553E4C501B4010F94AD0C181614F46D
:1044E0000C94B2312FE632E143E85AEBC701B60132
:1044F0000F940C1387FF02C00C94B23121E230E01C
:1045000048EC53E4C701B6010F94AD0C181614F42F
:104510000C94B2310C94BE3181E0809305040C946C
:10452000B2310E942EFA5DEB252E52E0352E65EB5E
:10453000C62E67E0D62EE12CF12C00E010E01FAE75
:10454000F10181911F010E943D39882309F450C077
:104550000E94DB384B015C010330110559F0F70173
:10456000E553F84F20813181428153810F94E5104A
:104570004B015C01F701E05FF74F208131814281FF
:104580005381C501B4010F94E5102B013C012DEBC3
:1045900037E346E855EB0F940C1387FD0AC02DEB6B
:1045A00037E346E855E3C301B2010F94AD0C18168A
:1045B000FCF40330110559F480921C0890921D08F8
:1045C000A0921E08B0921F08F1E0FFAF11C0A30136
:1045D0009201D6016D917D918D919C910F94E61081
:1045E000F6016083718382839383C8010E941767F9
:1045F0000F5F1F4FF4E0CF0ED11C24E0E20EF11C40
:104600000430110509F09CCF3FAD31110E94DCA4AC
:104610000E94C1E50C94B2318091B802882311F454
:104620000C94B23189E40E943D39082F882321F08F
:104630000E94AB38E62E01C0E12C8AE40E943D398D
:10464000F82E882331F00E94AB38162F011104C0D8
:104650000BC010E00023B9F043E04E1510F00C94AD
:104660004835E3E3F2E003C01830D8F70CC084917A
:104670008F010F5F1F4F882311F40C94B2310E94F9
:104680007237F801F4CF0E9449390023F1F02091EC
:104690006707309168075E2D5203B001539F700D7C
:1046A00011242091630730916407620F731F072E56
:1046B000000C880B990B0F94B30C60933408709323
:1046C00035088093360890933708FF20E9F0209151
:1046D000690730916A071203B001139F700D11240E
:1046E0008091650790916607680F791F072E000C6F
:1046F000880B990B0F94B30C6093380870933908AA
:1047000080933A0890933B0880E50E943D398823C6
:1047100019F00E94CC3803C080E50E940E3986E46F
:104720000E943D398823D9F00E94DB386B017C015F
:1047300020E030E0A9010F940C13181684F420E057
:1047400030E040E752E4C701B6010F94C211609314
:104750003E0270933F0280934002909341020E9478
:104760002BDE0C94B2318091251190912611833764
:10477000910511F40C940A2C0CF0D2C08B349105E5
:1047800009F483C50CF075C08831910509F4C5C2E0
:10479000E4F58231910509F467C7F4F497FF02C08C
:1047A0000C94B231823091050CF4CFC1419711F0D5
:1047B0000C94B23160E085E892E00E94BDF55F980C
:1047C0008A989FB7F894809108018E7F80930801A2
:1047D0009FBF47980C94B2318531910509F482C28C
:1047E0003CF4449711F00C94B231EDE9F2E037C299
:1047F0008631910509F47AC2479711F00C94B231D1
:10480000E0912311F09124117BC28E31910509F4BE
:10481000DFC2C4F48A31910509F490C20CF488C255
:104820008B31910509F498C24C9711F00C94B23178
:1048300040E060E080912311909124110E9479C1A1
:104840000C94B2318032910509F4D0C30CF41AC42F
:104850008A32910509F4BCC4C19711F00C94B231AD
:10486000F090000481E0F826F0920004EEE6F3E018
:10487000EFC48936910509F437C644F583359105AF
:1048800009F4EEC69CF48D34910509F406C50CF4C8
:1048900000C58135910509F4CDC68235910511F029
:1048A0000C94B231109204040C94B2318535910508
:1048B00009F40FC70CF4D8C68C35910509F422C74A
:1048C0008836910509F4EDC40C94B2318E36910509
:1048D00009F43EC584F48B36910509F49BC60CF4AB
:1048E00076C68C36910509F4B5C58D36910509F467
:1048F0003DC60C94B2318037910509F4AEC50CF475
:1049000039C58137910509F4ACC58237910511F09D
:104910000C94B2310E942EFA0E94C1E50C94B2317F
:104920008831A1E09A0711F40C94062E0CF084C093
:10493000883C910511F40C947E2D0CF03FC0893712
:10494000910511F40C94022D1CF58637910509F49C
:10495000B4C774F48537910511F00C94B23160E05E
:1049600080912311909124110E94DBF50C94B231B7
:104970008737910509F4E0C78837910511F00C9449
:10498000B23181E08093801280937F120C94B23117
:104990008139910511F40C94072D34F48C3891056C
:1049A00009F488C50C94B2318B39910509F4B9C565
:1049B0008E3B910509F4F2C50C94B2318E3C910501
:1049C00011F40C94CA2DECF48B3C910511F40C9469
:1049D000C42D4CF4893C910511F00C94B2310E9425
:1049E0008EA20C94B2318C3C910511F40C94C72D1D
:1049F0008D3C910511F00C94B2310E9499A10C9458
:104A0000B2318C3D910511F40C94CD2D4CF4833DC5
:104A1000910511F00C94B2310E948EA00C94B23129
:104A20008D3D910511F40C94DA2D823E910511F41F
:104A30000C94DD2D0C94B231843AE1E09E0711F420
:104A40000C94912E0CF043C0833621E0920711F4B0
:104A50000C943831ECF48D3241E0940711F40C944D
:104A6000322E3CF48C32914011F40C94092E0C94AB
:104A7000B2318E32B1E09B0711F40C94352E8F3297
:104A8000914011F00C94B2310E949F9A0C94B23173
:104A90008139F1E09F0711F40C94892E4CF4803990
:104AA000914011F00C94B2310E942EFA0C94B23164
:104AB000823941E0940711F40C948D2E8A3991408B
:104AC00011F00C94B2310E945E9A0C94B231863F80
:104AD000A1E09A0711F40C94D530ECF48C3AE1E0A3
:104AE0009E0711F40C94EB2F3CF4853A914011F49D
:104AF0000C945C2F0C94B231843F31E0930711F495
:104B00000C94D230853F914011F00C94B2310E9448
:104B1000D4740C94B231833553E0950711F40C949E
:104B2000E3303CF4873F914011F40C94D8300C945E
:104B3000B231803AE3E09E0709F497C2873E934082
:104B400011F40C944F310C94B231A0902311B09019
:104B5000241180E50E943D39882359F00E94403796
:104B60006B017C0111E0672B682B692B31F410E09D
:104B700004C010E0C12CD12C760183E50E943D39A0
:104B80008823F1F00E94DB3820E030E04AE754E46B
:104B90000F94120D0F942F126B017C01111112C092
:104BA000672B682B692B71F4A114B10459F0D5015E
:104BB0008C91882339F061E0C5010E94DBF507C0C4
:104BC000112391F360E082E792E00E94BDF583E05B
:104BD00090E09093A5078093A40781E08093F80F5D
:104BE0000E942EFA0E946737C114D104E104F10437
:104BF000E9F08091AD079091AE07A091AF07B09119
:104C0000B007C80ED91EEA1EFB1E0E94D886DC0122
:104C1000CB018C199D09AE09BF09B7FF1CC080915B
:104C2000F80F8823C1F00E94BE97EFCF8091F80F54
:104C3000882319F00E94BE97F9CF80910F139091AD
:104C4000101360E0029719F481E692E002C082E559
:104C500092E00E94BDF51092F80F0C94B23184914D
:104C60008F010F5F1F4F882321F00E947237F801D8
:104C7000F6CF1092A5151092A41540E050E0BA01AD
:104C800080E593E10E94F16C8BE1E0E5F3E1DE0168
:104C9000159601900D928A95E1F780914E139091AF
:104CA0004F139C838B8383E393E09A83898340E053
:104CB00050E0BE016F5F7F4F8CEF93E00E942FBFEB
:104CC000CE0101960E944D97EEE8F2E084918F01AB
:104CD0000F5F1F4F882311F40C94B2310E9472377A
:104CE000F801F4CF0E94F7A20C94B23110921F1376
:104CF000109220130C94B231803209F41082319654
:104D000080818111F9CF40E061E080912311909181
:104D100024110E9479C10C94B23180912013882310
:104D200019F081E080931F130E9465A70C94B231A3
:104D300010921F130E9429A80C94B2318091201365
:104D4000882311F40C94B23183E50E943D3981111E
:104D50000C9411320C94B23180912013882351F1BC
:104D6000EEEAF2E084918F010F5F1F4F882321F05C
:104D70000E947237F801F6CF60919B1570919C15D7
:104D800080919D1590919E154AE00E9479378FE29F
:104D90000E947237609197157091981580919915BE
:104DA00090919A154AE00E9479378AE00E94723702
:104DB0000C94B231E0ECF2E084918F010F5F1F4F51
:104DC000882311F40C94B2310E947237F801F4CFA9
:104DD00080912013882311F40C94B2318AEE94E16F
:104DE0000E94BF6C8AEE94E10E94377310921E13EA
:104DF00010921D13E0902311F09024118091201344
:104E0000882311F40C94B2310E946EC11D82188661
:104E10001C821B8283E393E09A8389838CE493E171
:104E200090936C1380936B13F70180818F3209F09C
:104E300068C06FE270E0C7010F9429148C010F5F06
:104E40001F4F9E012F5F3F4F49010115110509F4C6
:104E50005EC06FE270E0C8010F9429146C010097E6
:104E600009F456C00817190708F052C05C01A01ACF
:104E7000B10AA501B801CE0180960F945214E0E268
:104E8000F0E0EC0FFD1FEA0DFB1D10828E01005EAD
:104E90001F4FD8018D918D01882319F00E94723720
:104EA000F8CF8AE00E94723760916B1370916C1397
:104EB0006115710511F06C5F7F4F21E0AE01405E1E
:104EC0005F4FCE0105960E943F73811112C0BE0153
:104ED000605E7F4F87EF92E00E946F5E8EE20E94DD
:104EE00072378AE00E947237C4010E944D970C9479
:104EF000B23190926C1380926B1386010F5F1F4F3B
:104F0000A4CF8DE693E190936C1380936B1387018C
:104F100060916B1370916C136115710511F06C5FEA
:104F20007F4F18A21BA222E0A801CE0180960E940A
:104F30003F73811102C0F12C14C0CE0180960E94F3
:104F4000B8F08823C1F361E0CE0180960E94A89258
:104F5000009789F325EEFC0120831BA20E94D06AF2
:104F6000F82ECE0180960E945037FF2009F1E1ED26
:104F7000F2E084917F012FEFE21AF20A882321F0F8
:104F80000E947237F701F5CFD8018D918D018823EA
:104F900019F00E947237F8CF8AE00E94723710929F
:104FA0009B1510929C1510929D1510929E1518C07D
:104FB000EFEDF2E084917F01BFEFEB1AFB0A88234B
:104FC00021F00E947237F701F5CFF80181918F012E
:104FD000882319F00E947237F8CF8EE20E94723750
:104FE000CE0101960E944D970C94B23180911F130F
:104FF00081110E942EFA80912013882311F40C94C1
:10500000B23180E50E943D39882319F00E94CC38E6
:1050100003C080E50E940E39182F482F61E080916F
:105020002311909124110E9479C183E50E943D399A
:10503000882381F00E94AB38AB01BC0140939B15E3
:1050400050939C1560939D1570939E158AEE94E184
:105050000E94F16C80912013882319F081E08093E5
:105060001F1311110C94B2315FCE809123119091D6
:10507000241121E020931E1340E060E00E9479C1DA
:105080000C94B2310E9482F04CE3C42ED12CE12C5E
:10509000F12CA70196010F948810762E672ECA0175
:1050A000B901A70196010F9488106B017C01CA0118
:1050B000B90128E130E040E050E00F9488104B0146
:1050C0005C01C9016DE671E00F94BA138E010F5FA8
:1050D0001F4F6115710599F06F927F92DF92CF9209
:1050E0009F928F929F938F937F936F9383E393E02D
:1050F0009F938F931F930F930F94460C12C00097AA
:10510000B1F06F927F92DF92CF929F928F929F9396
:105110008F9383E293E09F938F931F930F930F944A
:10512000460C0FB6F894DEBF0FBECDBF36C081145B
:105130009104A104B10479F06F927F92DF92CF9233
:105140009F928F9287E193E09F938F931F930F938A
:105150000F94460CE6CFC114D104E104F10469F0C8
:105160006F927F92DF92CF928FE093E09F938F9325
:105170001F930F930F94460CD4CF6F927F928BE0C6
:1051800093E09F938F931F930F930F94460C0F9070
:105190000F900F900F900F900F9060E0C8010E9449
:1051A000DBF5E4E8FAE284917F01BFEFEB1AFB0A3A
:1051B000882321F00E947237F701F5CFB80187E408
:1051C00093E00E946F5E8AE00E9472370C94B231C5
:1051D00083E50E943D39882311F40C94B2310E947A
:1051E000BB38E82E80E50E943D39882341F00E94BB
:1051F000AB388B0177FF02C00C94B23102C00DE0D6
:1052000010E0902FE1EEF5E088E28E0F24919217E6
:1052100029F031968E13FACF0C942132E9E6FAE2A6
:1052200084918F010F5F1F4F882321F00E947237F6
:10523000F801F6CFE4E5F3E084918F010F5F1F4F93
:10524000882311F40C94B2310E947237F801F4CF24
:1052500084918F010F5F1F4F882321F00E947237C6
:10526000F801F6CFF11003C0E8E6F3E002C0E3E690
:10527000F3E084918F010F5F1F4F882311F40C948A
:10528000B2310E947237F801F4CF0E9465A70C94E6
:10529000B2310E9429A80C94B2310E945FEF0C94A5
:1052A000B23188E690E00E94586781110C94B231C7
:1052B0008091580683FF02C00C94B23183E50E94AE
:1052C0003D39882309F440C00E94DB380F942A122C
:1052D0007093C8156093C71580E00E94B3D00E94F8
:1052E000DB3820E030E04AEA52E40F94AD0C1816A7
:1052F0003CF00E945FEF60E080E893E00E94BDF523
:105300000E94DB382091440D3091450D4091460DAF
:105310005091470D0F940C131816B4F482E693E0E5
:105320009F938F938091AE0F90E001969F938F9300
:1053300089E793E09F938F931F920E94A1A60FB6D7
:10534000F894DEBF0FBECDBF0F948A000C94B2312B
:105350008EE40E943D39882311F40C94B2310E94EE
:10536000AB38609346087093470880934808909341
:105370004908F8C783E50E940E39882359F083E570
:105380000E943D39882319F00E94BB3801C080E09B
:1053900080935806E4E8FAE284918F010F5F1F4F73
:1053A000882321F00E947237F801F6CFEFE9F3E08D
:1053B00084918F010F5F1F4F882321F00E94723765
:1053C000F801F6CF809158068823A1F131E9C32E68
:1053D00033E0D32EE12CF12C20E08091580690E0B0
:1053E0000E2C02C0959587950A94E2F780FF17C0AE
:1053F000BB24B394B20E222319F08CE20E947237C0
:10540000F60125913491F901849189010F5F1F4FB5
:10541000882321F00E9472379801F5CF2B2DFFEFE2
:10542000EF1AFF0A32E0C30ED11C45E0E416F10486
:10543000A1F60CC0EBE9F3E084918F010F5F1F4FE1
:10544000882321F00E947237F801F6CF8AE00E948B
:10545000723788C71092200285C786EA93E00E94BF
:10546000559783E50E943D39882359F00E94BB3847
:105470008D3318F48093350275C78CE38093350221
:1054800071C7E4E8FAE284918F010F5F1F4F882310
:1054900021F00E947237F801F6CF4091350250E0BA
:1054A00060E070E08FEA93E00E9450B38AE00E94CF
:1054B000723758C78091580683FD54C783E50E9410
:1054C0003D39882309F44EC70E94DB380F942A1215
:1054D0006338710514F062E870E07093C61560934C
:1054E000C5150E9468D03EC789E690E00E945867C3
:1054F000811111C0E6EBF3E084918F010F5F1F4F24
:10550000882321F00E947237F801F6CF0E944ECE18
:105510008AE00E9472371092A5071092A4070C949B
:10552000763583E50E943D39882309F41BC70E9424
:10553000BB38182F8D3308F01CE31093AA070E9484
:10554000D8866B017C01212F30E0A8EEB3E00F94E8
:10555000D610C60ED71EE81EF91EC092A607D0921E
:10556000A707E092A807F092A907FCC68DE690E095
:105570000E9458678111F6C68091580683FDF2C6D5
:1055800083E50E943D3960968FAF609781116FC7A8
:1055900082E50E943D3981116AC7E4C680915806B0
:1055A00083FDE0C660E081EF93E00E94BDF583E5F6
:1055B0000E943D3960968FAF609781110C94C4337F
:1055C00082E50E943D3981110C94C433CBC680E53D
:1055D0000E943D39811108C083E50E943D39811147
:1055E00008C03FEF20E009C00E94BB388111BAC655
:1055F000F3CF0E94AB38362F272F832F922F8F3F68
:10560000910519F010F08FEF90E09093CA158093F8
:10561000C915A8C680E50E943D39811105C01092C8
:10562000CA151092C9159EC60E94AB38672B09F0A7
:1056300099C6F5CF0E94FED00E942EFA0E941ADE73
:105640001092CA151092C91568EE73E080E090E0E0
:105650000E94C4F460E08EEF93E00E94BDF582C624
:1056600081E0809304047EC683E50E943D3988234F
:1056700099F00E94DB3820E030E04AE754E40F94D0
:10568000120D0F942F12609336027093370280939D
:1056900038029093390266C688E50E940E3981115E
:1056A0000C94233589E50E940E3981110C94233521
:1056B0008AE50E940E3981110C94233585E40E94FD
:1056C0000E3981110C9423350E942EFA0E941ADEA5
:1056D00049C683E50E940E39882309F443C60E9417
:1056E000DB3820E030E04AE754E40F94120D0F94C9
:1056F0002F126093B1077093B2078093B307909312
:10570000B40730C6BDEBCB2EB2E0DB2E10E2E12EAB
:1057100018E0F12E10E0D6018D916D010E940E3936
:10572000882309F46DC0133009F063C00E94DB3890
:105730004B015C0120E030E040EA51E40F94AD0CF5
:1057400087FF4EC0A501940160912C0870912D082F
:1057500080912E0890912F080F94C2112B013C01CB
:105760009B01AC016091430670914406809145060F
:10577000909146060F94120D609343067093440671
:105780008093450690934606A30192016091F7111C
:105790007091F8118091F9119091FA110F94120DF6
:1057A0006093F7117093F8118093F9119093FA11A7
:1057B0006091650670916606809167069091680613
:1057C0000F94B10CA30192010F94120D0F942F129C
:1057D00060936506709366068093670690936806EB
:1057E00080922C0890922D08A0922E08B0922F083B
:1057F00007C00E94DB38F701608371838283938343
:105800001F5FF4E0EF0EF11C143009F084CF0E940A
:10581000C45FA8C5E4ECF4E084918F010F5F1F4FD3
:10582000882321F00E947237F801F6CF60E084EB04
:1058300094E00E94B3A261E08DEA94E00E94B3A2DA
:1058400061E082EA94E00E94B3A261E082E994E020
:105850000E94B3A260E089E894E00E94B3A261E0F4
:105860008FE794E00E94B3A261E085E794E00E9494
:10587000B3A261E08DE694E00E94B3A261E08FE5FF
:1058800094E00E94B3A260E081E594E00E94B3A29C
:1058900060E082E494E00E94B3A260E084E394E0DC
:1058A0000E94B3A260E08EE194E00E94B3A260E0A7
:1058B0008DE094E00E94B3A255C585E40E943D3975
:1058C000882319F00E94CC3803C085E40E940E3969
:1058D000882361F0E4E8FAE284918F010F5F1F4FA3
:1058E000882321F00E947237F801F6CF81E40E94EC
:1058F0003D39882319F00E94CC3803C081E40E940E
:105900000E39882361F0E9E8F5E084918F010F5F9B
:105910001F4F882321F00E947237F801F6CF0091C3
:10592000231110912411D8018D918D01882309F440
:105930008DCD0E947237F7CFE5EAF5E084918F01B3
:105940000F5F1F4F882321F00E947237F801F6CFB6
:10595000EDE9F5E084918F010F5F1F4F882321F05F
:105960000E947237F801F6CF659B03C007E413E08D
:1059700002C00CE413E0F80181918F01882319F033
:105980000E947237F8CF8AE00E947237E5E9F5E0AD
:1059900084918F010F5F1F4F882321F00E9472377F
:1059A000F801F6CF8091030181FF03C007E413E003
:1059B00002C00CE413E0D8018D918D01882319F009
:1059C0000E947237F8CF8AE00E947237EDE8F5E066
:1059D00084918F010F5F1F4F882321F00E9472373F
:1059E000F801F6CF4B9903C007E413E002C00CE4C2
:1059F00013E0F80181918F01882309F427CD0E94DB
:105A00007237F7CF1092801210927F12ABC483E5E9
:105A10000E943D39882319F00E94AB3802C060E033
:105A200070E08B01112702301105CCF0E9E6FAE2B3
:105A300084918F010F5F1F4F882321F00E947237DE
:105A4000F801F6CFEFEBF5E084918F010F5F1F4F68
:105A5000882309F487C40E947237F801F5CF88E4DF
:105A60000E943D398823A9F00E94AB386A3A71053B
:105A70003CF06431F1E07F072CF063E171E002C09B
:105A80006AEA70E0F801EE0FFF1FE057F84F7183EC
:105A9000608386E40E943D398823A9F00E94AB38D8
:105AA000F801EE0FFF1FEC56F84F718360836F3FD4
:105AB000710519F014F06FEF70E077FF02C060E03D
:105AC00070E07183608382E40E943D39882309F489
:105AD00049C40E94AB386530710534F064377105F4
