:100000000C94AB1A0C944E990C9423990C94F89878
:100010000C94CD980C94A2980C9477980C944C98CE
:100020000C9421980C94FA390C94EB390C94DC392B
:100030000C94DC1A0C94DC1A0C94DC1A0C94DC1A68
:100040000C94DC1A0C946FC30C94DC1A0C94DC1A1C
:100050000C94DC1A0C94DC1A0C9404A90C94D79719
:100060000C94DC1A0C944B3B0C94DC1A0C94DC1AA8
:100070000C94DC1A0C94DC1A0C94DC1A0C94DC1A28
:100080000C94C8CA0C94DC1A0C94DC1A0C94DC1A7C
:100090000C94DC1A0C94DC1A0C94DC1A0C94DC1A08
:1000A0000C94DC1A0C94DC1A0C949ACA0C94DC1A8A
:1000B0000C94DC1A0C94DC1A0C94DC1A0C946CCAA8
:1000C0000C94DC1A0C94DC1A0C94DC1A0C94DC1AD8
:1000D0000C94DC1A0C94DC1A0C94DC1A0C94DC1AC8
:1000E0000C94DC1A5C955F954E95529558959695B3
:1000F000639567956D95719575957B957F958395BE
:10010000969589958D959195F396F896FD96079716
:1001100011978A971B9723972B9735973F97499766
:10012000589762978A976C9776978097084AD73B3B
:100130003BCE016E84BCBFFDC12F3D6C74319ABDB6
:1001400056833DDA3D00C77F11BED9E4BB4C3E91DA
:100150006BAAAABE000000803F05A84CCDB2D44EC9
:10016000B93836A9020C50B9918688083CA6AAAACB
:100170002ABE000000803F000D944C070D942B0711
:100180004E414E494E495459494E46CDCCCC3D0A7C
:10019000D7233C17B7D13877CC2B329595E6241F5F
:1001A000B14F0A000020410000C84200401C462018
:1001B000BCBE4CCA1B0E5AAEC59D74434F4D4D5527
:1001C0004E49434154494F4E0044525952554E00F6
:1001D0004552524F525300494E464F004543484FF7
:1001E0000047322F47332062616420706172616D75
:1001F00065746572730A00536C6565702E2E2E004F
:10020000473238205A20466F7262696464656E0A0C
:1002100000473238205A20466F7262696464656E06
:1002200000205A3A200020593A20004265642058A4
:100230003A20004D65736820706F696E74206361A9
:100240006E6E6F74206265207265736F6C76656484
:100250000A004E6F206D6F76652E00456E64206635
:10026000696C65206C6973740A00426567696E2069
:1002700066696C65206C6973740A00000136372664
:1002800003FF3C3D380EFF2E303E12FFFF0C0A08E4
:10029000FFFFFF24221EFFFF0A4409FF3AFFFFFF72
:1002A000FFFFFF50726F7465637465642050696E60
:1002B0000A006F6E2E0A006F66662E0A00473236FD
:1002C000204465627567200045256920257300423A
:1002D000414B414C617365722072656164792E00F7
:1002E000DC01D701D001C901BB016F66660044453E
:1002F0004255473A004B494C4C45442E20004D3165
:1003000031332053006F6B0048656174696E67205C
:10031000646F6E652E0020573A00452569202573CD
:100320000042414B414C6173657220726561647992
:100330002E0042656420646F6E652E0020573A00DF
:100340004265642048656174696E672E0042414BC6
:10035000414C61736572204F66662E00454D4552D3
:1003600047454E43595F5041525345520043415314
:10037000455F4C494748545F4252494748544E45AF
:10038000535300544F47474C455F4C4947485453DB
:1003900000534F4654574152455F504F5745520006
:1003A0004255494C445F50455243454E54004C45DC
:1003B00056454C494E475F44415441005A5F5052A4
:1003C0004F4245004155544F4C4556454C00505204
:1003D000494E545F4A4F420050524F475245535383
:1003E000004155544F5245504F52545F54454D5063
:1003F00000564F4C554D45545249430045455052C7
:100400004F4D0053455249414C5F584F4E5F584F36
:100410004646004649524D574152455F4E414D4573
:100420003A4D61726C696E20312E312E382028478A
:1004300069746875622920534F555243455F434F95
:1004400044455F55524C3A68747470733A2F2F6765
:1004500069746875622E636F6D2F4D61726C696E81
:100460004669726D776172652F4D61726C696E209D
:1004700050524F544F434F4C5F56455253494F4E85
:100480003A312E30204D414348494E455F54595032
:10049000453A42414B414C61736572204558545274
:1004A000554445525F434F554E543A3120555549B6
:1004B000443A63656465326132662D343161322DB0
:1004C000343734382D396231322D63353563363265
:1004D0006633363766660A002F2F20007A5F6D6913
:1004E0006E3A2000795F6D696E3A2000785F6D6921
:1004F0006E3A20005265706F7274696E6720656E87
:100500006473746F70207374617475730A004D3175
:10051000343520533C696E6465783E206F757420D5
:100520006F662072616E67652028302D31290A00C0
:1005300020643A0020693A0020703A0043290A00FA
:1005400061626C656420286D696E2074656D702031
:1005500000436F6C64206578747275646573206104
:100560007265200023646566696E652020444546F7
:1005700041554C545F4B64200023646566696E6589
:10058000202044454641554C545F4B69200023646C
:100590006566696E65202044454641554C545F4B65
:1005A000702000504944204175746F74756E652049
:1005B00066696E697368656421205075742074687B
:1005C00065206C617374204B702C204B6920616E28
:1005D00064204B6420636F6E7374616E7473206665
:1005E000726F6D2062656C6F7720696E746F204347
:1005F0006F6E66696775726174696F6E2E680A0046
:10060000504944204175746F74756E652066616948
:100610006C6564212074696D656F75740A005448B7
:1006200045524D414C2052554E4157415900546856
:1006300065726D616C2052756E61776179004865F5
:100640006174696E67206661696C65640048656104
:1006500074696E67206661696C6564005049442066
:100660004175746F74756E65206661696C6564218F
:100670002054656D706572617475726520746F6F5A
:1006800020686967680A00204B643A2000204B69A3
:100690003A2000204B703A20000A20436C617373AB
:1006A000696320504944200A002054753A200020F4
:1006B0004B753A2000206D61783A2000206D696EFC
:1006C0003A200020643A200020626961733A2000D9
:1006D0004F66660A0046616465204865696768740C
:1006E0002000426564204C6576656C696E67200069
:1006F0004661696C656420746F20656E61626C652B
:1007000020426564204C6576656C696E670A004D11
:1007100065736820706F696E742063616E6E6F74AC
:10072000206265207265736F6C7665640A004D34D3
:10073000323120696E636F7272656374207061720A
:10074000616D657465722075736167650A004F6637
:100750006673657473206170706C696564004572BE
:10076000723A20546F6F206661722100546F6F20BF
:100770006661722066726F6D207265666572656E65
:10078000636520706F696E740A003A2000207A5FFA
:100790006D696E3A20202D3230207A5F6D61783A93
:1007A000202032300A0050726F6265205A204F6656
:1007B00066736574004E6F2063617365206C6967B2
:1007C00068740A00416374697665204578747275AF
:1007D0006465723A2000556E6B6E6F776E20636FA2
:1007E0006D6D616E643A2022004D6573682056611C
:1007F0006C69646174696F6E2053746F70706564A6
:100800002E00696E206D6F76655F746F28292066F3
:100810006565645F76616C756520666F72205859F6
:100820003A004C656176696E672047323600473280
:10083000362048656174696E67204E6F7A7A6C6500
:100840002E004732362048656174696E6720426524
:10085000642E00446F6E65205072696D696E67008A
:10086000446F6E65205072696D696E6700466978E5
:100870006564204C656E677468205072696D652EE2
:1008800000557365722D436F6E74726F6C6C656486
:10089000205072696D65002C2065793D0029202D5E
:1008A0003E202865783D002C2073793D0020436F61
:1008B0006E6E656374696E6720776974682076650B
:1008C00072746963616C206C696E65202873783D71
:1008D000002C2065793D0029202D3E202865783D9B
:1008E000002C2073793D0020436F6E6E6563746940
:1008F0006E67207769746820686F72697A6F6E74AA
:10090000616C206C696E65202873783D004C6561D0
:1009100076696E6720473236002C2079693D0020C9
:100920002020446F696E6720636972636C65206183
:10093000743A202878693D003F53706563696669A1
:10094000656420582C5920636F6F7264696E6174FE
:1009500065206F7574206F6620626F756E64732EEC
:100960000A003F28522965706561742076616C75B4
:1009700065206E6F7420706C61757369626C653B85
:10098000206D757374206265206174206C656173DD
:100990007420312E0A003F5370656369666965648F
:1009A000206E6F7A7A6C652074656D706572617403
:1009B000757265206E6F7420706C61757369626CFE
:1009C000652E0A003F537065636966696564206639
:1009D000696C616D656E742073697A65206E6F74E1
:1009E00020706C61757369626C652E0A003F5370EC
:1009F00065636966696564207072696D65206C6500
:100A00006E677468206E6F7420706C6175736962B4
:100A10006C652E0A003F53706563696669656420E2
:100A20006E6F7A7A6C652073697A65206E6F7420B8
:100A3000706C61757369626C652E0A003F53706556
:100A40006369666965642052657472616374696F75
:100A50006E204D756C7469706C696572206E6F7470
:100A600020706C61757369626C652E0A003F526577
:100A70007472616374696F6E204D756C7469706C0B
:100A8000696572206D75737420626520737065638B
:100A900069666965642E0A003F537065636966691B
:100AA0006564206C61796572206865696768742087
:100AB0006E6F7420706C61757369626C652E0A00CC
:100AC0003F5370656369666965642062656420747C
:100AD000656D7065726174757265206E6F742070DB
:100AE0006C61757369626C652E0A0047323620634B
:100AF0006F6D6D616E6420737461727465642E2015
:100B000057616974696E6720666F722068656174E9
:100B100065722873292E0A004B494C4C45442E20FF
:100B200000202D20496E76616C69642065787472AE
:100B300075646572206E756D62657220210A001FF2
:100B4000FFFFFFFFFFFF600000000001FF4000000B
:100B5000000000FF8000000000007F83CF00000C39
:100B6000303F87FF80000C301F867980000C000F1B
:100B70008C30C7838C30E78C30CFC7CC31F38C30CE
:100B8000DCECEC33B98C30D86C6C33198C30D06C15
:100B90000C33198C30D86C0C33198C30DC6C0E3B58
:100BA000198C30CF7C079F198C30C77C038F19407C
:100BB000000000000002600000000000061FFFFFB0
:100BC000FFFFFFF82020506C616E6E657242756603
:100BD00066657242797465733A20002046726565D5
:100BE000204D656D6F72793A2000436F6D70696CAE
:100BF00065643A204A756C20203720323031380A3B
:100C000000207C20417574686F723A20286E6F6EE8
:100C1000652C2064656661756C7420636F6E66690F
:100C200067290A00323031372D31322D32352031EB
:100C3000323A303000204C61737420557064617416
:100C400065643A2000312E312E380A004D61726CF5
:100C5000696E0020536F6674776172652052657308
:100C600065740A00205761746368646F6720526579
:100C70007365740A002042726F776E206F7574205E
:100C800052657365740A002045787465726E616CF4
:100C90002052657365740A00506F77657255700A4B
:100CA0000073746172740A006572726F72207772D9
:100CB0006974696E6720746F2066696C650A004507
:100CC0006E6473746F707320256320256320256321
:100CD00020256300205A3A0020593A0020583A0053
:100CE000656E6473746F7073206869743A20004491
:100CF0006F6E6520736176696E672066696C652E1C
:100D00000A004D3239004572726F72207772697431
:100D1000696E6720746F20454550524F4D210A007F
:100D2000290A002062797465733B20637263200096
:100D300053657474696E67732053746F72656420B1
:100D40002800202863616C63756C617465642921D7
:100D50000A0020213D2000454550524F4D2043526E
:100D600043206D69736D61746368202D202873744E
:100D70006F726564292000290A0020627974657306
:100D80003B2063726320002073746F72656420736C
:100D9000657474696E6773207265747269657665CF
:100DA00064202800204D61726C696E3D56343729ED
:100DB0000A0028454550524F4D3D00454550524F81
:100DC0004D2076657273696F6E206D69736D617405
:100DD0006368200048617264636F646564204465E1
:100DE0006661756C742053657474696E6773204C0A
:100DF0006F616465640A004C0400004C04000064E8
:100E00000000001027000000004843000048430095
:100E100000A0400000C8410000A0420000A0420025
:100E200000C7430000C84420746F6F206C6F6E676A
:100E300020657874727573696F6E2070726576655F
:100E40006E7465640A0020636F6C64206578747248
:100E50007573696F6E2070726576656E7465640A6D
:100E60000020706F736974696F6E206F7574206FE6
:100E7000662072616E67652E0A003F50726F626570
:100E80002000202844525952554E2900473239201B
:100E90004175746F20426564204C6576656C696E9F
:100EA000670028422961636B00284629726F6E74BF
:100EB000002852296967687400284C296566740007
:100EC0003F2856296572626F7365206C6576656C84
:100ED00020697320696D706C61757369626C65203F
:100EE00028302D34292E0A00426164205A20766170
:100EF0006C75650A004E6F2062696C696E6561727F
:100F000020677269640A00526573756D696E6720A7
:100F10007072696E740042414B414C61736572207E
:100F200072656164792E00436C69636B20746F2075
:100F3000726573756D652E2E2E0053442070726994
:100F40006E74696E67206279746520004E6F74203C
:100F50005344207072696E74696E670A0046696C4A
:100F6000652064656C657465643A0044656C6574FD
:100F7000696F6E206661696C65642C2046696C65DA
:100F80003A20006F70656E206661696C65642C2084
:100F900046696C653A20002569730025696D202536
:100FA0006973002569682025696D2025697300250E
:100FB0006964202569682025696D202569730025ED
:100FC000697920256964202569682025696D2025B7
:100FD0006973005072696E742074696D653A2000FF
:100FE000496E697469616C697A6520454550524F54
:100FF0004D00436F6E74726F6C00526573746F7244
:1010000065206661696C73616665004C6F61642080
:1010100073657474696E677300496E697469616C95
:10102000697A6520454550524F4D0053746F726583
:101030002073657474696E677300424C546F7563F6
:10104000680046696C616D656E74004D6F74696F00
:101050006E0054656D7065726174757265004D61E6
:10106000696E004D333033205531204525692053BA
:1010700025690050726568656174204142532063A0
:101080006F6E66005072656865617420504C412037
:10109000636F6E6600504944204175746F74756EBD
:1010A0006500504944204175746F74756E65005039
:1010B00049442D44005049442D44005049442D4991
:1010C000005049442D49005049442D500050494496
:1010D0002D500020082046616374002008204661DE
:1010E0006374002008204D6178002008204D61784D
:1010F000002008204D6178002008204D696E0020F6
:1011000008204D696E002008204D696E004F66660C
:10111000004F6E20004175746F74656D70004661FC
:101120006E2073706565640046616E20737065653E
:10113000640042656400426564004E6F7A7A6C65B3
:10114000004E6F7A7A6C6500436F6E74726F6C003C
:1011500053746F72652073657474696E67730042AF
:10116000656400426564004E6F7A7A6C65004E6F6C
:101170007A7A6C650046616E20737065656400461E
:10118000616E2073706565640054656D7065726191
:1011900074757265007C3C3E5E2B3D3F2F5B5D3B72
:1011A0002C2A225C004C696E65204E756D6265725A
:1011B000206973206E6F74204C617374204C696ECB
:1011C00065204E756D6265722B312C204C617374F5
:1011D000204C696E653A20004B494C4C45442E200A
:1011E0000053544F505045442E20005072696E7485
:1011F00065722073746F7070656420647565207407
:101200006F206572726F72732E2046697820746841
:1012100065206572726F7220616E6420757365203F
:101220004D39393920746F20726573746172742E70
:10123000202854656D7065726174757265206973DC
:101240002072657365742E20536574206974206163
:10125000667465722072657374617274696E672951
:101260000A004E6F20436865636B73756D20776964
:101270007468206C696E65206E756D6265722C20D5
:101280004C617374204C696E653A20006368656335
:101290006B73756D206D69736D617463682C204C80
:1012A000617374204C696E653A20004D3131300015
:1012B0004D33310053442072656164206572726F52
:1012C000720A00446F6E65207072696E74696E6791
:1012D0002066696C650A0020496E76616C6964203D
:1012E000657874727564657220000000000000006B
:1012F000000000000000000057430000C843000049
:101300002F4353544F505045442E20005072696E65
:101310007465722073746F707065642064756520E5
:10132000746F206572726F72732E20466978207414
:101330006865206572726F7220616E6420757365D6
:10134000204D39393920746F20726573746172745D
:101350002E202854656D7065726174757265206900
:10136000732072657365742E205365742069742030
:1013700061667465722072657374617274696E67F8
:10138000290A0053544F502063616C6C65642062DD
:10139000656361757365206F6620424C546F756399
:1013A00068206572726F72202D207265737461728D
:1013B000742077697468204D3939390A0042696CA4
:1013C000696E656172204C6576656C696E67204751
:1013D0007269643A0A0053746F7720424C546F75F7
:1013E0006368004D3238302050302053393000448B
:1013F00065706C6F7920424C546F756368004D3294
:1014000038302050302053313000424C546F7563D7
:10141000682053656C662D54657374004D32383006
:1014200020503020533132300052657365742042B1
:101430004C546F756368004D323830205030205363
:10144000313630004D61696E005072696E742070E3
:10145000617573656400005072696E742061626F1B
:1014600072746564005072696E742066726F6D20CC
:1014700053440053746F70207072696E740052652B
:1014800073756D65207072696E74004E6F205344E1
:101490002063617264005061757365207072696EBB
:1014A0007400436F6E74726F6C005072657061727D
:1014B000650054756E6500496E666F2073637265D2
:1014C000656E00466C6F7700466C6F770046616E04
:1014D0002073706565640046616E20737065656495
:1014E0000042656400426564004E6F7A7A6C650064
:1014F0004E6F7A7A6C650053706565640053706551
:101500006564004D61696E005072656865617420A4
:10151000504C4120456E64005072656865617420CE
:10152000504C41005072656865617420504C4120F8
:101530004265640050726570617265005072656842
:101540006561742041425320456E640050726568A5
:1015500065617420414253204265640050726568A1
:10156000656174204142530050726570617265007C
:1015700050726F62696E67206661696C65640A000B
:1015800050726F62696E67206661696C65640020E5
:101590005A3A200020593A200042656420583A20E7
:1015A00000486F6D65202573257325732066697269
:1015B0007374002066697273740A005A00590058E7
:1015C00000486F6D65200053442063617264206F92
:1015D0006B0A006F70656E526F6F74206661696C84
:1015E00065640A00766F6C756D652E696E6974208E
:1015F0006661696C65640A00534420696E697420F1
:101600006661696C0A0000002100240027002A009E
:101610002D003000330001010000040107010A0120
:1016200000002200250028002B002E00310034008D
:1016300002010000050108010B0100002000230049
:10164000260029002C002F003200000100000301B9
:101650000601090105050505070508080808020235
:1016600002020A0A0808040404040101010101013C
:1016700001010303030303030303040707070C0C1F
:101680000C0C0C0C0C0C02020202060606060606E6
:1016900006060B0B0B0B0B0B0B0B0102102020088B
:1016A00008102040102040800201020108040201BD
:1016B000010204081020408080402010080402012C
:1016C0008004020180402010080402010804020185
:1016D000010204081020408001020408102040800C
:1016E00000000A0B02090C0D0E080703040100009C
:1016F00000000000000000000000000000000000EA
:1017000000000000000000000000000012111000A6
:1017100000000000000000000000000000000000C9
:1017200000000000000056652D6A65726B0056656A
:101730002D6A65726B0056652D6A65726B00567A6C
:101740002D6A65726B00567A2D6A65726B00567948
:101750002D6A65726B0056792D6A65726B00567939
:101760002D6A65726B0056782D6A65726B0056782B
:101770002D6A65726B0056782D6A65726B004D6F2D
:1017800074696F6E004573746570732F6D6D0045DD
:1017900073746570732F6D6D005A73746570732F59
:1017A0006D6D005A73746570732F6D6D005973748D
:1017B0006570732F6D6D005973746570732F6D6D47
:1017C000005873746570732F6D6D00587374657075
:1017D000732F6D6D004D6F74696F6E00537465707B
:1017E000732F6D6D004A65726B00416363656C65B4
:1017F000726174696F6E0056656C6F63697479000D
:101800005A204F6666736574005A204F666673658A
:101810007400436F6E74726F6C0046696C2E2044C6
:1018200069612E0046696C2E204469612E004F6666
:1018300066004F6E20004520696E206D6D330043B9
:101840006F6E74726F6C0043616E6E6F7420656EA4
:10185000746572207375626469723A2000022E2EDC
:10186000004D61696E0000000000300E0100C00EE6
:101870000A00500F1400D00F1E0060102800E01066
:10188000320070113C00F01146007012500000133D
:101890005A008013640000146E0090147800101534
:1018A000820090158C00101696009016A00010175C
:1018B000AA009017B4001018BE009018C8001019A4
:1018C000D2009019DC00101AE600801AF000001B0C
:1018D000FA00801B0401F01B0E01701C1801F01CA3
:1018E0002201601D2C01E01D3601501E4001D01E5A
:1018F0004A01401F5401B01F5E0130206801A02042
:10190000720110217C019021860100229001602645
:10191000F401902A5802802EBC0250322003E03598
:1019200084035039E803803C4C046265640A002C4F
:101930002073797374656D2073746F7070656421A2
:10194000204865617465725F49443A2000486561CA
:1019500074696E67206661696C65640048656174CE
:10196000696E67206661696C6564004865617469C9
:101970006E67206661696C65640048656174696EB4
:1019800067206661696C65640070012C0190012715
:1019900001B0012201C0011D01F001180110021364
:1019A0000130020E016002090190020401C002FF31
:1019B000000003FA004003F5008003F000D003EBC1
:1019C000002004E6007004E100E004DC004005D7DC
:1019D00000C005D2004006CD00D006C8008007C375
:1019E000003008BE00F008B900C009B400B00AAF6A
:1019F00000B00BAA00D00CA500000EA000500F9B59
:101A000000C01096005012910000148C00C0158781
:101A100000B0178200B0197D00D01B7800001E7343
:101A20000040206E0090226900F024640040275F8F
:101A30000090295A00E02B5500102E500020304B0A
:101A40000010324600E033410090353C001037373B
:101A50000070383200A0392D00B03A2800A03B2396
:101A600000603C1E00103D1900903D1400103E0F18
:101A700000703E0A00C03E0500003F0000403FFBF2
:101A8000FF803FF6FFC03FF1FF544845524D414CA7
:101A90002052554E4157415900546865726D616C32
:101AA0002052756E61776179004572723A204D4916
:101AB0004E54454D5020424544004572723A204DE7
:101AC000494E54454D50004D494E54454D5020749B
:101AD0007269676765726564004572723A204D41AC
:101AE0005854454D5020424544004572723A204DAD
:101AF000415854454D50004D415854454D50207467
:101B0000726967676572656400202F002042403A61
:101B10000020403A0025753A2530327500253032D4
:101B2000753A253032750025756420253032753AB6
:101B300025303275005A0059005800092000000075
:101B4000000000000000000000007FFFE000000037
:101B50000000000000000000007000E00000000035
:101B6000000000000000000061F8600000000000BC
:101B70000000000000000041F8200000000000000C
:101B800000000000000040F0200000000000000005
:101B90000000000000406020000000000000000085
:101BA000000000005801A07F80000000000000003D
:101BB0004104005C63A0FFC00000000000000020A2
:101BC00082005EF7A0FFC00000000000000020823D
:101BD000005EF7A0FFC0000000000000004104000C
:101BE0005C63A07F800000000000000082080058B5
:101BF00001A07F8000000000000001041000406090
:101C000020FFC00000000000000104100040F02090
:101C1000FFC00000000000000082080041F820FF23
:101C2000C00000000000000041040061F8603F00B7
:101C3000000000000000000000007000E01E000036
:101C4000000000000001FFFF807FFFE00C000000AB
:101C50000000000001FFFF80000000000000000005
:101C6000000000000000007FFFE000000000000016
:101C70000000000000007000E00000000000000014
:101C80000000000000630C60000000000000000085
:101C900000000000470E20000000000000000000CF
:101CA0000000004F0F2000000000000000000000B6
:101CB00000005F0FA0000000000000000000000016
:101CC000005E07A07F8000000000000000410400CB
:101CD000406020FFC00000000000000020820040A3
:101CE000F020FFC00000000000000020820040F053
:101CF00020FFC00000000000000041040040602000
:101D00007F80000000000000008208005E07A07FC6
:101D100080000000000000010410005F0FA0FFC061
:101D2000000000000000010410004F0F20FFC00061
:101D3000000000000000820800470E20FFC00000E5
:101D40000000000000410400630C603F0000000040
:101D5000000000000000007000E01E000000000015
:101D6000000001FFFF807FFFE00C0000000000008A
:101D70000001FFFF8000000000060900FE000000D7
:101D8000000001090008FE000005080806000040E8
:101D9000F0C88888987810050808060000C0F88800
:101DA00088888888F80505050600012030F830206D
:101DB0000508080600002070F820202020E0050912
:101DC000090600FF2070A8A8B888887020050909B6
:101DD0000600FFE080C0B0A82830282805090906C1
:101DE00000FFF8A88888888888A8F8050A0A0600ED
:101DF000FE205050505088A8A888700303030600A6
:101E00000340A040436172642072656D6F76656423
:101E1000004361726420696E736572746564006169
:101E200075746F25692E67004D3234004D323320B2
:101E300025730057726974696E6720746F20666934
:101E40006C653A20006F70656E206661696C656430
:101E50002C2046696C653A20006F70656E206661C3
:101E6000696C65642C2046696C653A200046696C93
:101E7000652073656C65637465640A002053697A34
:101E8000653A200046696C65206F70656E65643A3E
:101E900020006F70656E206661696C65642C204659
:101EA000696C653A20002066696C653A2000646FB1
:101EB000696E67006672657368004E6F7720004533
:101EC0004E4420535542524F5554494E450A002224
:101ED00020706F73002220706172656E743A220068
:101EE000535542524F5554494E452043414C4C2086
:101EF0007461726765743A22004B494C4C45442E1C
:101F00002000747279696E6720746F2063616C6C55
:101F1000207375622D67636F64652066696C6573F5
:101F2000207769746820746F6F206D616E79206C02
:101F30006576656C732E204D4158206C6576656C16
:101F40002069733A004572726F723A0043616E6E97
:101F50006F74206F70656E20737562646972200003
:101F600024F4D43050C38E20C2A24017828B70114B
:101F7000127A910D816CD90AA861E108C7586607E9
:101F8000615143061E4B5D05C145A7041A4111046A
:101F9000093D9803713931034036DB026533910204
:101FA000D4305402802E1D02632CEE01752AC50127
:101FB000B028A001102781018F2564012B244B013B
:101FC000E0223401AC211F018D200D01801FFC0097
:101FD000841EED00971DDF00B81CD200E61BC60072
:101FE000201BBC00641AB200B219A8000A19A00094
:101FF0006A189900D117910040178B00B51684001C
:1020000031167E00B31579003A157300C7146F00BE
:1020100058146A00EE1366008813630025135E00EF
:10202000C7125B006C12570015125400C111510009
:1020300070114F0021114B00D61049008D10470040
:102040004610440002104200C00F4000800F3E00C6
:10205000420F3C00060F3B00CB0E3800930E3700BA
:102060005C0E3500270E3400F30D3200C10D310037
:10207000900D3000600D2E00320D2D00050D2C004E
:10208000D90C2B00AE0C2900850C29005C0C270014
:10209000350C27000E0C2600E80B2400C40B24008E
:1020A000A00B23007D0B23005A0B2100390B2100CC
:1020B000180B2000F80A1F00D90A1E00BB0A1E00D8
:1020C0009D0A1D00800A1D00630A1C00470A1B00B0
:1020D0002C0A1B00110A1A00F7091A00DD09190061
:1020E000C4091900AB091900920917007B091800EF
:1020F000630917004C09160036091600200916005E
:102100000A091500F5081500E0081400CC081400B1
:10211000B8081400A4081400900813007D081200E9
:102120006B0813005808120046081200340811000A
:10213000230811001208110001081100F007100017
:10214000E0071000D0071000C0071000B0070F0014
:10215000A107100091070E0083070F0074070F00FE
:1021600065070E0057070E0049070E003B070D00DC
:102170002E070E0020070D0013070D0006070D00A7
:10218000F9060C00ED060D00E0060C00D4060C006C
:10219000C8060C00BC060C00B0060C00A4060B0020
:1021A00099060C008D060B0082060B0077060B00CB
:1021B0006C060B0061060A0057060B004C060A006D
:1021C00042060A0038060A002E060A0024060A0003
:1021D0001A060A001006090007060A00FD05090094
:1021E000F4050900EB050900E2050900D90509001D
:1021F000D0050900C7050900BE050900B50508009E
:10220000AD050800A50509009C0508009405080017
:102210008C050800840508007C050800740508008A
:102220006C050700650508005D05070056050800F8
:102230004E05070047050700400508003805070060
:10224000310507002A050700230507001C050600C5
:10225000160507000F050700080506000205070020
:10226000FB040600F5040700EE040600E80406007F
:10227000E2040700DB040600D5040600CF040600D4
:10228000C9040600C3040600BD040600B704060026
:10229000B1040500AC040600A6040600A004050075
:1022A0009B04060095040500900406008A040500BE
:1022B00085040500800406007A0405007504050005
:1022C000700405006B040500660405006104050048
:1022D0005C04050057040500520405004D04050088
:1022E00048040500430405003E0404003A040500C8
:1022F00035040500300404002C0405002704040004
:10230000230405001E0404001A040400160405003A
:10231000110404000D040400090405000404040071
:1023200000040400FC030400F8030400F4030400A8
:10233000F0030400EC030400E8030400E4030400D9
:10234000E0030400DC030400D8030400D403040009
:10235000D0030400CC030400C8030300C50303003A
:1023600024F404D9201BC40C5C0E9804C4095F0239
:1023700065077101F405F900FB04B3004804870008
:10238000C10369005803550003034500BE023A002B
:102390008402310053022A00290225000402200091
:1023A000E4011C00C8011900AF01170098011400D6
:1023B00084011300710110006101100051010E0031
:1023C00043010D0036010B002B010B0020010B0017
:1023D000150109000C01090003010800FB000800B9
:1023E000F3000800EB000700E4000600DE00060032
:1023F000D8000600D2000600CC000500C70005008A
:10240000C2000500BD000400B9000400B5000400CE
:10241000B1000400AD000400A9000400A500030001
:10242000A20003009F0004009B000300980003002B
:102430009500020093000300900003008D0002004D
:102440008B00030088000200860002008400030065
:10245000810002007F0002007D0002007B0002007C
:10246000790002007700010076000200740002008B
:1024700072000100710002006F0002006D00010097
:102480006C0002006A0001006900020067000100A0
:1024900066000100650001006400020062000100A6
:1024A00061000100600001005F0002005D000100AA
:1024B0005C0001005B0001005A00010059000100AE
:1024C00058000100570001005600010055000100AE
:1024D00054000100530000005300010052000100AD
:1024E00051000100500001004F0001004E000000AB
:1024F0004E0001004D0001004C0001004B000000A7
:102500004B0001004A0001004900010048000000A2
:10251000480001004700010046000000460001009D
:102520004500000045000100440001004300000098
:102530004300010042000000420001004100000091
:1025400041000100400001003F0000003F00010089
:102550003E0000003E0001003D0000003D00010083
:102560003C0000003C0000003C0001003B0000007B
:102570003B0001003A0000003A0001003900000071
:102580003900010038000000380000003800010068
:102590003700000037000100360000003600000060
:1025A0003600010035000000350000003500010054
:1025B000340000003400000034000100330000004B
:1025C0003300000033000100320000003200000040
:1025D0003200010031000000310000003100010034
:1025E0003000000030000000300001002F0000002B
:1025F0002F0000002F0000002F0001002E0000001F
:102600002E0000002E0001002D0000002D00000013
:102610002D0000002D0001002C0000002C00000007
:102620002C0000002C0001002B0000002B000000FB
:102630002B0000002B0001002A0000002A000000EF
:102640002A0000002A0001002900000029000000E3
:1026500029000000290000002900010028000000D6
:1026600028000000280000002800000028000100C9
:1026700027000000270000002700000027000000BE
:1026800027000100260000002600000026000000B0
:1026900026000000260001002500000025000000A3
:1026A0002500000025000000250000002500010095
:1026B000240000002400000024000000240000008A
:1026C000240001002300000023000000230000007C
:1026D000230000002300000023000000230001006D
:1026E0002200000022000000220000002200000062
:1026F0002200000022000100210000002100000053
:102700002100000021000000210000002100000045
:102710002100010020000000200000002000000037
:102720002000000020000000200000002000000029
:10273000200001001F0000001F0000001F0000001B
:102740001F0000001F0000001F0000001F0001000C
:102750001E0000001E0000001E0000001E00000001
:102760004D383420582059205A2045004D343238F5
:10277000004D323830205030205331363000424C3A
:10278000546F7563682053656C662D5465737400CF
:102790004D32383020503020533132300050726585
:1027A00068656174204142530050726568656174C8
:1027B00020504C4100436F6F6C646F776E0044692A
:1027C0007361626C65207374657070657273004D1F
:1027D00038340053657420686F6D65206F666673CA
:1027E00065747300526573657420424C546F756351
:1027F0006800426564204C6576656C696E670047C9
:1028000032380A473239004175746F20686F6D6540
:1028100000473238004D6F76652061786973004D4E
:1028200061696E004D6F76652058004D6F766520AA
:1028300059004D6F7665205A00457874727564654D
:1028400072004D6F766520302E316D6D004D6F76C4
:102850006520316D6D004D6F76652031306D6D00F6
:102860004D6F766520617869730045787472756480
:102870006572004D6F7665205A004D6F7665205960
:10288000004D6F76652058004578747275646572E6
:10289000004D6F7665205A004D6F76652059004DCA
:1028A0006F766520580050726570617265005265E0
:1028B00073656E643A20006F6B0020746F6F206C3C
:1028C0006F6E6720657874727573696F6E207072B1
:1028D0006576656E7465640A0020636F6C642065BC
:1028E0007874727573696F6E2070726576656E7438
:1028F00065640A00627573793A2070617573656466
:1029000020666F7220696E7075740A006275737943
:102910003A2070617573656420666F722075736507
:10292000720A00627573793A2070726F636573730F
:10293000696E670A004B494C4C45442E20004B49B8
:102940004C4C20636175736564206279204B494C5F
:102950004C20627574746F6E2F70696E0A004B495B
:102960004C4C45442E20004B494C4C206361757300
:10297000656420627920746F6F206D7563682069CB
:102980006E6163746976652074696D65202D2063BE
:10299000757272656E7420636F6D6D616E643A203E
:1029A00000205A3A0020593A0020436F756E742077
:1029B000583A0020453A00205A3A0020593A005827
:1029C0003A003A004361703A0053657474696E6767
:1029D0002054726176656C20416363656C65726139
:1029E00074696F6E3A200053657474696E67205283
:1029F00065747261637420416363656C65726174B0
:102A0000696F6E3A200053657474696E6720507266
:102A1000696E7420416363656C65726174696F6E81
:102A20003A200053657474696E67205072696E7441
:102A300020616E642054726176656C204163636529
:102A40006C65726174696F6E3A2000205A002059DB
:102A500000580020204D61783A2000205A0020596B
:102A600000580020204D696E3A20004F6E20004F24
:102A7000666600536F667420656E6473746F70735E
:102A80003A2000206F7574206F662072616E676552
:102A90000A00536572766F20003A20002053657259
:102AA000766F200020204D383531205A005A2D50A5
:102AB000726F6265204F666673657420286D6D299C
:102AC0003A0A0020440020490020204D33303120B4
:102AD00050005049442073657474696E67733A0AF4
:102AE0000020460020420020480020204D3134358F
:102AF0002053004D6174657269616C206865617472
:102B0000757020706172616D65746572733A0A0048
:102B1000205A0020204D3432302053004175746F0C
:102B200020426564204C6576656C696E673A0A00E0
:102B3000205A0020590020204D32303620580048BD
:102B40006F6D65206F66667365743A0A00204500F4
:102B5000205A002059002058002042002054002014
:102B6000204D323035205300416476616E636564D8
:102B70003A20533C6D696E5F666565647261746589
:102B80003E20543C6D696E5F74726176656C5F6661
:102B9000656564726174653E20423C6D696E5F7369
:102BA00065676D656E745F74696D655F75733E20F2
:102BB000583C6D61785F78795F6A65726B3E205A28
:102BC0003C6D61785F7A5F6A65726B3E20453C6D53
:102BD00061785F655F6A65726B3E0A002054002071
:102BE000520020204D323034205000416363656C28
:102BF00065726174696F6E2028756E6974732F73C6
:102C000032293A20503C7072696E745F616363656B
:102C10006C3E20523C726574726163745F616363E1
:102C2000656C3E20543C74726176656C5F616363D1
:102C3000656C3E0A00204500205A002059002020E3
:102C40004D3230312058004D6178696D756D2041ED
:102C50006363656C65726174696F6E2028756E6957
:102C600074732F7332293A0A00204500205A00203D
:102C7000590020204D3230332058004D6178696D65
:102C8000756D206665656472617465732028756E64
:102C90006974732F73293A0A00204500205A0020D6
:102CA000590020204D39322058005374657073202C
:102CB00070657220756E69743A0A0020204D3230BA
:102CC000302044300A0020204D3230302044002093
:102CD00044697361626C65640A0046696C616D6584
:102CE0006E742073657474696E67733A0020204DAA
:102CF0003134392043203B20556E69747320696E4E
:102D00002043656C736975730A00202047323120B7
:102D10002020203B20556E69747320696E206D6DF4
:102D20000A00506C656173652072657365740050AC
:102D300052494E5445522048414C5445440050722B
:102D4000696E7465722068616C7465642E206B69AD
:102D50006C6C28292063616C6C6564210A0000009A
:102D600000000000000000000000555505425555C8
:102D7000054200002040000000005761726E696E3D
:102D8000673A20486F6D696E672042756D70204408
:102D9000697669736F72203C20310A0002020400D8
:102DA00000A0400000A04000000040000057430089
:102DB00000C84300002F43FFFFFF00002110422006
:102DC00063308440A550C660E770088129914AA10C
:102DD0006BB18CC1ADD1CEE1EFF131121002733283
:102DE0005222B5529442F772D662399318837BB35C
:102DF0005AA3BDD39CC3FFF3DEE362244334200413
:102E00000114E664C774A44485546AA54BB52885AB
:102E10000995EEE5CFF5ACC58DD553367226111662
:102E20003006D776F6669556B4465BB77AA71997FB
:102E30003887DFF7FEE79DD7BCC7C448E5588668EA
:102E4000A7784008611802282338CCC9EDD98EE94B
:102E5000AFF9488969990AA92BB9F55AD44AB77AC2
:102E6000966A711A500A333A122AFDDBDCCBBFFB9B
:102E70009EEB799B588B3BBB1AABA66C877CE44CD2
:102E8000C55C222C033C600C411CAEED8FFDECCDEB
:102E9000CDDD2AAD0BBD688D499D977EB66ED55EA2
:102EA000F44E133E322E511E700E9FFFBEEFDDDF3B
:102EB000FCCF1BBF3AAF599F788F8891A981CAB1C7
:102EC000EBA10CD12DC14EF16FE18010A100C230F9
:102ED000E3200450254046706760B9839893FBA3B4
:102EE000DAB33DC31CD37FE35EF3B1029012F32249
:102EF000D2323542145277625672EAB5CBA5A89504
:102F000089856EF54FE52CD50DC5E234C324A01498
:102F100081046674476424540544DBA7FAB7998793
:102F2000B8975FE77EF71DC73CD7D326F2369106E8
:102F3000B01657667676154634564CD96DC90EF9DB
:102F40002FE9C899E9898AB9ABA944586548067838
:102F50002768C018E1088238A3287DCB5CDB3FEBF3
:102F60001EFBF98BD89BBBAB9ABB754A545A376A88
:102F7000167AF10AD01AB32A923A2EFD0FED6CDDC3
:102F80004DCDAABD8BADE89DC98D267C076C645CD8
:102F9000454CA23C832CE01CC10C1FEF3EFF5DCFD3
:102FA0007CDF9BAFBABFD98FF89F176E367E554E28
:102FB000745E932EB23ED10EF01E656E717565750E
:102FC00065696E672022006563686F3A0056547227
:102FD0006176206D696E005654726176206D696E5F
:102FE000005654726176206D696E00566D696E00F0
:102FF000566D696E00566D696E00566D617820459C
:1030000000566D6178204500566D61782045005668
:103010006D6178205A00566D6178205A00566D61B6
:1030200078205A00566D6178205900566D617820DD
:103030005900566D6178205900566D61782058000E
:10304000566D6178205800566D61782058004D6F9C
:1030500074696F6E00416D6178204500416D617843
:10306000204500416D6178205A00416D6178205AF9
:1030700000416D6178205900416D6178205900410F
:103080006D6178205800416D6178205800412D74A1
:10309000726176656C00412D74726176656C0041D9
:1030A0002D7265747261637400412D726574726172
:1030B000637400416363656C00416363656C004D3C
:1030C0006F74696F6E0000060900FE07019203210C
:1030D000207FFF07FF07FF00000006000001070731
:1030E00006020080808080800080030202060105C5
:1030F000A0A00507070600005050F850F8505005F2
:1031000007070600002078A07028F02005070706B2
:103110000000C0C81020409818050707060000608E
:1031200090A040A89068020303060104C0408003F9
:103130000707060100204080808040200307070623
:103140000100804020202040800505050600012068
:10315000A870A8200505050600012020F8202002FF
:1031600003030602FFC04080050101060003F802C8
:103170000202060200C0C005050506000108102075
:1031800040800507070600007088888888887003DB
:10319000070706010040C040404040E00507070621
:1031A0000000708808708080F8050707060000F8A6
:1031B0001020100808F00507070600001030509096
:1031C000F81010050707060000F880F0080888705E
:1031D000050707060000708080F0888870050707E3
:1031E000060000F808102020202005070706000030
:1031F00070888870888870050707060000708888C6
:1032000078080870020505060200C0C000C0C002B0
:1032100006060602FFC0C000C04080040707060083
:103220000010204080402010050303060002F80033
:10323000F8040707060100804020102040800507A1
:103240000706000070880810200020050707060008
:103250000070880868A8A870050707060000708835
:1032600088F8888888050707060000F08888F088B5
:1032700088F0050707060000708880808088700548
:103280000707060000F08888888888F00507070689
:103290000000F88080F08080F8050707060000F83D
:1032A0008080F0808080050707060000708880B865
:1032B000888870050707060000888888F88888884D
:1032C0000107070602008080808080808005070754
:1032D0000600003810101010906005070706000067
:1032E0008890A0C0A0908805070706000080808015
:1032F000808080F805070706000088D8A88888889D
:10330000880507070600008888C8A89888880507E8
:1033100007060000708888888888700507070600FF
:1033200000F08888F080808005070706000070881C
:103330008888A89068050707060000F08888F0A034
:103340009088050707060000788080700808F0055F
:103350000707060000F82020202020200507070688
:10336000000088888888888870050707060000881C
:103370008888888850200507070600008888888884
:1033800088A85005070706000088885020508888C4
:1033900005070706000088888850202020050707B9
:1033A000060000F80810204080F803070706010017
:1033B000E08080808080E0050505060001804020D7
:1033C0001008030707060100E02020202020E00568
:1033D0000303060004205088050101060000F802DE
:1033E0000202060205804005050506000070087807
:1033F00088780507070600008080B0C88888F00537
:10340000050506000070808088700507070600002B
:10341000080868988888780505050600007088F80F
:1034200080700507070600003048E0404040400536
:1034300006060600FF7088887808700507070600F2
:10344000008080B0C88888880107070602008000D5
:1034500080808080800308080601FF200020202053
:1034600020A040040707060000808090A0C0A09024
:10347000030707060100C04040404040E005050545
:10348000060000D0A8A8A8A8050505060000B0C839
:1034900088888805050506000070888888700506FC
:1034A000060600FFF08888F080800506060600FF0B
:1034B000788888780808050505060000B0C880806F
:1034C0008005050506000070807008F004070706F7
:1034D00000004040E04040403005050506000088FF
:1034E00088889868050505060000888888502005AA
:1034F00005050600008888A8A850050505060000F7
:1035000088502050880506060600FF8888887808BD
:1035100070050505060000F8102040F803070706AF
:103520000100204040804040200107070602008043
:103530008080808080800307070601008040402053
:10354000404080050202060002689000000006006C
:103550000000BC00BE0011241FBECFEFD1E2DEBFD1
:10356000CDBF00E00CBF14E0A0E0B2E0EAEFFDE266
:1035700002E00BBF02C007900D92A230B107D9F74D
:1035800025E1A2E0B4E001C01D92AF3AB207E1F735
:103590001AE1CAEADAE100E006C021970109802FAA
:1035A000FE010F946116C93AD10780E00807A9F718
:1035B0000E9414FE0D94EC160C9400002F923F9282
:1035C0004F925F926F927F928F929F92AF92BF9233
:1035D000CF92DF92EF92FF920F931F93CF93DF93DF
:1035E000CDB7DEB7C958D1090FB6F894DEBF0FBE0C
:1035F000CDBF81E090E090933C1080933B10809190
:10360000A6158D3411F40C948B23843511F40C948D
:10361000EA32873411F00C9425338091A4159091EF
:10362000A5158C31910509F4D1C5B4F48430910508
:103630003CF482309105B4F597FF2DC00C943C33D7
:103640008430910509F493C54A9711F00C943C33EA
:103650000E94633D0C943C338A32910509F480C783
:103660004CF48D31910509F487C64E9709F488C64C
:103670000C943C338B35910509F4F2C68C359105D9
:1036800009F4F3C68A35910511F00C943C3310927D
:1036900007040C943C3380913C0281110C94433319
:1036A0000C943C3320913C02222311F40C943C33C3
:1036B00011E0029709F010E00E94CB7E82E50E94A3
:1036C000063C882309F43EC10E94A43B6B017C01A7
:1036D00040907A0750907B0760907C0770907D0740
:1036E00020917E0730917F0740918007509181079C
:1036F00028AB39AB4AAB5BAB80919E0790919F079B
:10370000A091A007B091A1078CAB9DABAEABBFABB6
:103710002091A2073091A3074091A4075091A507DB
:1037200024962CAF3DAF4EAF5FAF249720E030E042
:10373000A901C701B6010F942D0F882309F4FDC418
:10374000A30192016CA97DA98EA99FA90F942D0FA9
:1037500081110FC028A939A94AA95BA924966CAD8B
:103760007DAD8EAD9FAD24970F942D0F882309F466
:10377000E4C420E030E0A901C701B6010F942D0F89
:10378000881F8827881F18130BC080E090E0A0E8EE
:10379000BFE32C968CAF9DAFAEAFBFAF2C970AC0E6
:1037A00020E030E040E85FEB2C962CAF3DAF4EAF11
:1037B0005FAF2C97A30192016CA97DA98EA99FA947
:1037C0000F9465136CAF7DAF8EAF9FAF28A939A959
:1037D0004AA95BA924966CAD7DAD8EAD9FAD2497B3
:1037E0000F94651328966CAF7DAF8EAF9FAF28976F
:1037F0002CAD3DAD4EAD5FADCA01B9010F94920F36
:103800004B015C0128962CAD3DAD4EAD5FAD2897C8
:10381000CA01B9010F94920F9B01AC01C501B4011B
:103820000F9466130F94D11568AF79AF8AAF9BAF31
:1038300020E030E040E05FE30F94920F4B015C0129
:10384000A7019601C701B6010F94920F6B017C018D
:10385000A5019401C501B4010F94920F9B01AC0125
:10386000C701B6010F9465130F94D1159B01AC01EC
:103870002C966CAD7DAD8EAD9FAD2C970F94920FB5
:103880004B015C012CA93DA94EA95FA9C301B2015E
:103890000F94661320E030E040E05FE30F94920F56
:1038A0006B017C0128966CAD7DAD8EAD9FAD2897E8
:1038B000905828AD39AD4AAD5BAD0F9442149B01D1
:1038C000AC01C501B4010F94920F9B01AC01C7017B
:1038D000B6010F946613A30192010F9465136B0157
:1038E0007C0124962CAD3DAD4EAD5FAD249768A90B
:1038F00079A98AA99BA90F94661320E030E040E0E3
:103900005FE30F94920F2B013C0128AD39AD4AAD16
:103910005BAD6CAD7DAD8EAD9FAD0F9442149B0140
:10392000AC01C501B4010F94920F9B01AC01C3011E
:10393000B2010F94661328A939A94AA95BA90F946B
:10394000651314C089E40E94063C882329F00E9474
:10395000A43B6B017C0103C0C12CD12C76018AE40D
:103960000E94063C8823F9F00E94A43B24966CAF89
:103970007DAF8EAF9FAF249720E030E0A901C70153
:10398000B6010F942D0F81111EC020E030E0A90177
:1039900024966CAD7DAD8EAD9FAD24970F942D0F09
:1039A000811111C0CAC320E030E0A901C701B601EE
:1039B0000F942D0F882309F4C0C324961CAE1DAEAE
:1039C0001EAE1FAE2497D701C601B05888AB99AB85
:1039D000AAABBBAB24962CAD3DAD4EAD5FAD2497ED
:1039E00050582CAB3DAB4EAB5FAB9C01AD01BC0165
:1039F000CD010F94920F4B015C012CA93DA94EA95A
:103A00005FA9CA01B9010F94920F9B01AC01C501D6
:103A1000B4010F9466130F94D1156C966CAF7DAF03
:103A20008EAF9FAF6C9780917A0790917B07A091A2
:103A30007C07B0917D0788AF99AFAAAFBBAFA70154
:103A40009601BC01CD010F9466132C966CAF7DAF2F
:103A50008EAF9FAF2C9720917E0730917F074091CA
:103A600080075091810728962CAF3DAF4EAF5FAFD6
:103A7000289724962CAD3DAD4EAD5FAD249728968A
:103A80006CAD7DAD8EAD9FAD28970F94661360969B
:103A90006CAF7DAF8EAF9FAF609780919E07909186
:103AA0009F07A091A007B091A10764968CAF9DAF2E
:103AB000AEAFBFAF64972C962CAD3DAD4EAD5FADB4
:103AC0002C97BC01CD010F9465136B017C012091F3
:103AD000A2073091A3074091A4075091A5076896CB
:103AE0002CAF3DAF4EAF5FAF689760962CAD3DAD4C
:103AF0004EAD5FAD609768966CAD7DAD8EAD9FAD00
:103B000068970F9465134B015C0180918207909137
:103B10008307A0918407B0918507A4968CAF9DAFD1
:103B2000AEAFBFAFA4979C01AD016091A6077091A5
:103B3000A7078091A8079091A9070F9465136CAF10
:103B40007DAF8EAF9FAF2091AA073091AB07409118
:103B5000AC075091AD07A0962CAF3DAF4EAF5FAF15
:103B6000A0978091860790918707A0918807B091D0
:103B70008907A8968CAF9DAFAEAFBFAFA897A7013E
:103B8000960168A979A98AA99BA90F94920F2B0184
:103B90003C01A50194016CA97DA98EA99FA90F9450
:103BA000920F9B01AC01C301B2010F9466132B016C
:103BB0003C01A501940168A979A98AA99BA90F9440
:103BC000920F4B015C01A70196016CA97DA98EA9FA
:103BD0009FA90F94920F9B01AC01C501B4010F94F2
:103BE0006513A30192010F94D9136B017C0120E0AE
:103BF00030E0A9010F942D0F87FF0AC02BED3FE0A5
:103C000049EC50E4C701B6010F9466136B017C01C7
:103C1000112351F02BED3FE049EC50E4C701B60110
:103C20000F9465136B017C0120E030E0A901C7010E
:103C3000B6010F942D0F811126C064962CAD3DADB9
:103C40004EAD5FAD649768AD79AD8AAD9BAD0F9415
:103C50002D0F811118C068962CAD3DAD4EAD5FADF6
:103C6000689728966CAD7DAD8EAD9FAD28970F946B
:103C70002D0F811108C07BEDC72E7FE0D72E79EC88
:103C8000E72E70E4F72E6C962CAD3DAD4EAD5FADDA
:103C90006C97C701B6010F94920F9B01AC010F9472
:103CA000920F4B015C012CAD3DAD4EAD5FADCA0135
:103CB000B9010F94920F9B01AC01C501B4010F949F
:103CC00066130F94D1154B015C012FE632E143E8F6
:103CD0005AE30F942D0F87FD2CC2C501B4010F9438
:103CE000DB140F94AF141B01672B19F422242394C7
:103CF000312CB10180E090E00F94310F4B015C0159
:103D00009B01AC01C701B6010F94421468AF79AFB3
:103D10008AAF9BAFA50194016CAD7DAD8EAD9FAD1B
:103D20000F9442146C966CAF7DAF8EAF9FAF6C97C3
:103D3000A8962CAD3DAD4EAD5FADA897A0966CADED
:103D40007DAD8EAD9FADA0970F946513A501940135
:103D50000F944214A0966CAF7DAF8EAF9FAFA0972B
:103D600028AD39AD4AAD5BADCA01B9010F94920FD0
:103D700020E030E040E05FE30F94920F9B01AC0144
:103D800060E070E080E89FE30F94651364966CAF89
:103D90007DAF8EAF9FAF6497A4962CAD3DAD4EAD79
:103DA0005FADA49729873A874B875C87A8968CAD2F
:103DB0009DADAEADBFADA8978D879E87AF87B88B01
:103DC0006091310270913202072E000C880B990B22
:103DD0000F94330F2091370230913802409139020D
:103DE00050913A020F94920F2AE037ED43E25CE3E0
:103DF0000F94920F6CA77DA78EA79FA70E94CB97C9
:103E00009B01AC0128533F4F4F4F5F4F68962CAF3B
:103E10003DAF4EAF5FAF689748A859A86AA87BA886
:103E200041E050E026965FAF4EAF269759E15CAF78
:103E30002696AEADBFAD2697A215B30509F43EC1D7
:103E40000E9479AB0E94CB97DC01CB0168962CAD28
:103E50003DAD4EAD5FAD6897821B930BA40BB50BC8
:103E6000B7FD10C00E94CB979B01AC0128533F4F78
:103E70004F4F5F4F68962CAF3DAF4EAF5FAF689727
:103E80000E9490D13CAD31503CAF332309F441C086
:103E900064962CAD3DAD4EAD5FAD64976CA97DA928
:103EA0008EA99FA90F94920F6B017C0128AD39ADAB
:103EB0004AAD5BADB201C3010F94920FA701960109
:103EC0000F9466137B018C0164962CAD3DAD4EAD15
:103ED0005FAD6497B201C3010F94920F4B015C0177
:103EE00028AD39AD4AAD5BAD6CA97DA98EA99FA95E
:103EF0000F94920F9B01AC01C501B4010F9465139F
:103F00002B013C01C701D8018CAB9DABAEABBFAB65
:103F100057C026964EAD5FAD2697BA0180E090E07F
:103F20000F94310F28AD39AD4AAD5BAD0F94920FB0
:103F30004B015C010F943F146B017C01C501B4017E
:103F40000F94C7154B015C01A701960168A979A9D7
:103F50008AA99BA90F94920F2B013C01A501940102
:103F600024966CAD7DAD8EAD9FAD24970F94920FCE
:103F70009B01AC01C301B2010F9466132B013C01FC
:103F8000A501940168A979A98AA99BA90F94920F08
:103F90004B015C01A701960124966CAD7DAD8EAD01
:103FA0009FAD24970F94920F9B01AC01C501B40102
:103FB0000F9465136CAB7DAB8EAB9FAB59E15CAFDF
:103FC0009201A3012C966CAD7DAD8EAD9FAD2C976B
:103FD0000F94661369837A838B839C832CA93DA9F4
:103FE0004EA95FA960966CAD7DAD8EAD9FAD60971B
:103FF0000F9466136D837E838F8398876C962CADA8
:104000003DAD4EAD5FAD6C9769857A858B859C859E
:104010000F94661369877A878B879C87A0962CAD4F
:104020003DAD4EAD5FADA0976D857E858F8598893E
:104030000F9466136D877E878F87988B80915402CB
:10404000882321F0CE0101960E94F8E9E0903A1011
:1040500089819A81AB81BC8188A399A3AAA3BBA3C0
:104060008D819E81AF81B8858CA39DA3AEA3BFA394
:1040700089859A85AB85BC8588A799A7AAA7BBA780
:10408000CE0180960E94283A8E01045D1F4F9E014A
:10409000235F3F4FAE01485D5F4FBE016C5D7F4FB8
:1040A000CE0180960E94EF6226968EAD9FAD269738
:1040B000019626969FAF8EAF2697BACEE0903A1023
:1040C00080919E0790919F07A091A007B091A107B2
:1040D00088A399A3AAA3BBA38091A2079091A30749
:1040E000A091A407B091A5078CA39DA3AEA3BFA3E5
:1040F0008091A6079091A707A091A807B091A90762
:1041000088A799A7AAA7BBA7CE0180960E94283AA4
:104110008E01045D1F4F2AEA37E0AE01485D5F4F14
:10412000BE016C5D7F4FCE0180960E94EF620E94BF
:10413000593D0E94303A0C943C33E5E4FFE1849110
:104140008F010F5F1F4F882321F00E943B3AF80137
:10415000F6CFE1EEF1E084918F010F5F1F4F8823CE
:1041600011F40C943C330E943B3AF801F4CF80E503
:104170000E94063C882329F00E94093A6B017C01C9
:1041800003C0C12CD12C760183E50E94063C882314
:1041900061F00E94A43B20E030E04AE754E40F9431
:1041A000920F0F94AF146B017C010E9427C3809182
:1041B0007202811105C060E087EF91E00E94C0F5B6
:1041C000C701B6010E949B6C0C943C330E9427C32C
:1041D00080E00E94CF7F0E94A78111E01093F91127
:1041E00088E50E94D73BE82E89E50E94D73B082F3F
:1041F0008AE50E94D73BF82EE11004C0011104C0EB
:10420000182705C0011102C010E001C0182F0E943C
:10421000123C111104C0E11002C00023C1F180E082
:1042200090E0A0E7B1E48093A6079093A707A0933E
:10423000A807B093A9079C01AD0160918207709116
:10424000830780918407909185070F942D0F87FF36
:104250000BC019821A821B821C82BE016F5F7F4FC6
:1042600086EA97E00E94AC82111105C0E11003C0FC
:10427000011107C00CC080E090E00E94CDE811233E
:10428000B9F381E090E00E94CDE8111103C0FF2056
:1042900009F463C080918604882321F0809187040B
:1042A00081111EC060E081E192E00E94C0F5E7EC60
:1042B000FFE284918F010F5F1F4F882321F00E943E
:1042C0003B3AF801F6CFE0E0F2E084918F010F5F16
:1042D0001F4F882309F441C00E943B3AF801F5CFF3
:1042E0000E9495398091820790918307A09184075D
:1042F000B09185078093A6079093A707A093A8077E
:10430000B093A90780E090E0A0EDB2E480939E070F
:1043100090939F07A093A007B093A10780E090E03F
:10432000A4E4B3E48093A2079093A307A093A40707
:10433000B093A50719821A821B821C829E012F5FEF
:104340003F4F42E857E062EA77E08EE997E00E944B
:10435000C78182E090E00E94CDE80E94953980916B
:10436000F8118093F9110E948D8183E080933B02C4
:104370000E9440E10C943C330E940B680C943C3347
:10438000C0907A07D0907B07E0907C07F0907D0783
:1043900088E50E94063C811109C020E030E040E43D
:1043A00050E4C701B6010F94661302C00E94A43BFB
:1043B00068A379A38AA39BA3C0907E07D0907F07B0
:1043C000E0908007F090810789E50E94063C81110A
:1043D00009C020E030E040E850E4C701B6010F9486
:1043E000661302C00E94A43B6B017C0169837A833F
:1043F0008B839C8388A099A0AAA0BBA02EE93FEE46
:104400004FE350E4C501B4010F948C1587FF02C03F
:104410000C943C3322E430E046E553E4C501B4019A
:104420000F942D0F181614F40C943C332EE93FEE24
:104430004FE750E4C701B6010F948C1587FF02C007
:104440000C943C3321E230E048EC53E4C701B60160
:104450000F942D0F181614F40C943C330C9448331D
:1044600081E0809307040C943C330E9427C34FEBF8
:10447000242E42E0342E56E8C52E51E1D52EE12CF3
:10448000F12C00E010E018AAF10181911F010E94B7
:10449000063C882309F450C00E94A43B4B015C01F8
:1044A0000330110559F0F701EC5CF84F20813181A0
:1044B000428153810F9465134B015C01F701E6586B
:1044C000F84F2081318142815381C501B4010F949D
:1044D00065132B013C012DEB37E346E855EB0F94B8
:1044E0008C1587FD0AC02DEB37E346E855E3C30181
:1044F000B2010F942D0F1816FCF40330110559F476
:104500008092860790928707A0928807B0928907C9
:10451000F1E0F8AB11C0A3019201D6016D917D913C
:104520008D919C910F946613F60160837183828351
:104530009383C8010E943F830F5F1F4FF4E0CF0EAB
:10454000D11C24E0E20EF11C0430110509F09CCFCF
:1045500038A931110E94308F0E9440E10C943C3305
:1045600080913C02882311F40C943C3389E40E942E
:10457000063C182F882321F00E94743BE62E01C0D0
:10458000E12C8AE40E94063C082F882331F00E9427
:10459000743BF62E111104C00BC0F12C1123C1F095
:1045A00042E04E1510F00C942438E3E3F2E004C02E
:1045B00053E05F15D0F30CC084918F010F5F1F4F44
:1045C000882311F40C943C330E943B3AF801F4CF59
:1045D0000E94123C1123F1F020916C0630916D067F
:1045E0004E2D4203B001439F700D11248091680647
:1045F00090916906680F791F072E000C880B990BA4
:104600000F94330F60939E0770939F078093A007CA
:104610009093A1070023F1F020916E0630916F0670
:104620005F2D5203B001539F700D112420916A0633
:1046300030916B06620F731F072E000C880B990BCD
:104640000F94330F6093A2077093A3078093A4077E
:104650009093A50780E50E94063C882319F00E94EC
:10466000953B03C080E50E94D73B882381F111234D
:10467000B1F020E030E040E450E460919E0770919A
:104680009F078091A0079091A1070F9465136093F5
:104690009E0770939F078093A0079093A107002324
:1046A000B1F020E030E040E850E46091A207709162
:1046B000A3078091A4079091A5070F9465136093B9
:1046C000A2077093A3078093A4079093A50786E49D
:1046D0000E94063C8823D9F00E94A43B6B017C0118
:1046E00020E030E0A9010F948C15181684F420E026
:1046F00030E040E752E4C701B6010F9442146093E2
:104700003702709338028093390290933A020E94E4
:1047100042D40C943C338091A4159091A515823716
:10472000910509F4E7C50CF0E4C08A32910509F45B
:104730009BC20CF072C08631910509F441C2D4F5D8
:104740008530910509F4ECC174F48330910509F4C6
:10475000DDC10CF0E0C1029710F00C943C330E94D4
:104760006E670C943C338231910509F4E8C4B4F4CB
:10477000419711F00C943C3360E082E592E00E9496
:10478000C0F55F988A989FB7F894809108018E7F52
:10479000809308019FBF47980C943C338431910566
:1047A00009F4C9C1459711F00C943C330E944B8D1C
:1047B0000C943C338B31910509F43DC27CF4883173
:1047C000910509F419C20CF401C28931910509F46B
:1047D0001EC24A9709F421C20C943C338E319105D4
:1047E00009F42DC274F44C9711F00C943C3340E062
:1047F00060E08091A2159091A3150E94BDBD0C941C
:104800003C338F31910509F42BC2809711F00C9441
:104810003C330E94EC640C943C338C35910509F4D4
:10482000E0C4A4F58135910509F469C4FCF48B3426
:10483000910509F476C26CF4C19711F00C943C33E5
:10484000F090020481E0F826F0920204EDEBF2E031
:104850004BC28C34910509F468C28D34910511F076
:104860000C943C330E94F8EA0C943C338335910558
:1048700009F460C40CF45AC48435910509F45FC48A
:104880008535910509F492C40C943C338C3691051E
:1048900009F42AC3ACF48936910509F47BC334F4D6
:1048A0008836910509F445C20C943C338A3691054B
:1048B00009F4EEC38B36910509F40FC40C943C3314
:1048C0008F36910509F49FC254F48D36910509F491
:1048D000A5C38E36910509F483C20C943C3380370E
:1048E000910509F405C38137910509F409C30C94B6
:1048F0003C33823E910509F436C70CF07CC08E3BF8
:10490000910509F4A9C3C4F58837910509F4F6C5E2
:10491000CCF48537910509F445C544F483379105F6
:1049200011F00C943C33E3E1F4E0EAC486379105DE
:1049300009F441C58737910511F00C943C33E4EF3D
:10494000F4E078C58C38910509F406C35CF4893726
:10495000910511F00C943C331092F9111092F8115A
:104960000C943C338139910509F4CFC58B399105FD
:1049700009F42DC30C943C338D3C910509F4C4C655
:10498000C4F4893C910509F481C634F4883C91054E
:1049900009F435C60C943C338B3C910509F497C659
:1049A0008C3C910511F00C943C330E9493E00C94E4
:1049B0003C33833D910509F4C6C684F48E3C9105D1
:1049C00011F00C943C331FEBC12E12E0D12E0AE8FB
:1049D000E02E04E0F02E00E010E0A3C68C3D91052F
:1049E00009F4B4C68D3D910511F00C943C330E943E
:1049F00001DF0C943C338A39A1E09A0709F47CC2A8
:104A00000CF040C08F32E1E09E0709F4CAC7D4F42D
:104A10008C3221E0920709F4A9C64CF48831914008
:104A200011F00C943C330E94D9DD0C943C338D3250
:104A300051E0950709F4C3C68E32914009F45DC771
:104A40000C943C338039B1E09B0711F40C94153081
:104A50004CF48336914011F00C943C33E5E4FFE1D3
:104A60000C94C032813921E0920711F40C94183073
:104A70008239914011F00C943C3380E00E94B38263
:104A80000C943C33853F41E0940711F40C94583268
:104A9000ECF4853AA1E09A0711F40C94E7303CF469
:104AA000843A914011F40C941C300C943C338C3AB1
:104AB000F1E09F0711F40C947931843F914011F09B
:104AC0000C943C330E94F14F0C943C33833533E01B
:104AD000930711F40C946A326CF4863F51E0950709
:104AE00011F40C945B32873F914011F40C945E32C8
:104AF0000C943C33803AB3E09B0709F4A4C0873E92
:104B0000934011F40C94D5320C943C3381E00E9414
:104B1000D36C0C943C3380E00E94D36C0C943C33F7
:104B20000E9427C3A59A68E873E180E090E00E94A4
:104B30009B6C0C943C33EAE6F2E084918F010F5FAA
:104B40001F4F882321F00E943B3AF801F6CF1092C4
:104B50001E1510921D1540E050E0BA0189EC92E15B
:104B60000E940E778BE1E9ECF2E1DE0115960190EF
:104B70000D928A95E1F78091C7129091C8129C839B
:104B80008B8385E393E09A83898340E050E0BE0104
:104B90006F5F7F4F80E094E00E9473BBCE0101966F
:104BA0000E948AEAEBE5F2E084918F010F5F1F4FCC
:104BB000882311F40C943C330E943B3AF801F4CF63
:104BC00010929812109299120C943C33E091A21515
:104BD000F091A3158081882329F0803209F4108296
:104BE0003196F8CF40E061E08091A2159091A31535
:104BF0000E94BDBD0C943C3380919912882319F01A
:104C000081E0809398120E94B9910C943C331092E9
:104C100098120E947B920C943C33809199128823C5
:104C200011F40C943C3383E50E94063C81110C94F2
:104C30009E330C943C330E9431670C943C330E94A9
:104C4000FB650C943C338091A2159091A31521E053
:104C50002093971240E060E00E94BDBD0C943C336D
:104C60000E942D650C943C3383E50E94063C88230A
:104C700011F40C943C330E94843BE82E80E50E94A2
:104C8000063C882341F00E94743B8B0177FF02C0F1
:104C90000C943C3302C00DE010E0902FEBE7F2E003
:104CA00088E28E0F2491921729F031968E13FACF55
:104CB0000C94AE33E5E4FFE184918F010F5F1F4F49
:104CC000882321F00E943B3AF801F6CFE3EAF2E0B4
:104CD00084918F010F5F1F4F882311F40C943C3394
:104CE0000E943B3AF801F4CF84918F010F5F1F4F70
:104CF000882321F00E943B3AF801F6CFF11003C05F
:104D0000E7EBF2E002C0E2EBF2E084918F010F5F8B
:104D10001F4F882311F40C943C330E943B3AF80156
:104D2000F4CF0E94B9910C943C330E947B920C9476
:104D30003C3388E690E00E94808381110C943C33E0
:104D400080917A0683FF02C00C943C3383E50E9475
:104D5000063C882309F440C00E94A43B0F94AA1487
:104D6000709377156093761580E00E9465A70E9486
:104D7000A43B20E030E04AEA52E40F942D0F1816CD
:104D80003CF00E94F8EA60E08FEC92E00E94C0F5EF
:104D90000E94A43B20913B0830913C0840913D0883
:104DA00050913E080F948C151816B4F484E693E0E5
:104DB0009F938F938091E60790E001969F938F9346
:104DC00088EC92E09F938F931F920E94F5900FB60C
:104DD000F894DEBF0FBECDBF0F940A030C943C3392
:104DE0008EE40E94063C882311F40C943C330E940C
:104DF000743B6093B0077093B1078093B2079093B0
:104E0000B3070C943C3383E50E94D73B882359F0C9
:104E100083E50E94063C882319F00E94843B01C070
:104E200080E080937A06E7ECFFE284918F010F5FC8
:104E30001F4F882321F00E943B3AF801F6CFEEEE97
:104E4000F2E084918F010F5F1F4F882321F00E94B1
:104E50003B3AF801F6CF80917A068823A1F130EE33
:104E6000C32E32E0D32EE12CF12C20E080917A0683
:104E700090E00E2C02C0959587950A94E2F780FF8A
:104E800017C0BB24B394B20E222319F08CE20E9407
:104E90003B3AF60125913491F901849189010F5F24
:104EA0001F4F882321F00E943B3A9801F5CF2B2D0C
:104EB000FFEFEF1AFF0A32E0C30ED11C45E0E41603
:104EC000F104A1F60CC0EAEEF2E084918F010F5FCD
:104ED0001F4F882321F00E943B3AF801F6CF8AE069
:104EE0000E943B3A0C943C3310922A020C943C33BF
:104EF00085EF92E00E9492EA0E9499DD0C943C3387
:104F000083E50E94063C882369F00E94843B8D3330
:104F100020F480935F020C943C338CE380935F0217
:104F20000C943C33E7ECFFE284918F010F5F1F4F3D
:104F3000882321F00E943B3AF801F6CF40915F02AE
:104F400050E060E070E08EEF92E00E94BF608AE087
:104F50000E943B3A0C943C3380917A0683FF02C056
:104F60000C943C3383E50E94063C882311F40C9496
:104F70003C330E94A43B0F94AA146338710514F0CB
:104F800062E870E070937515609374150E941AA71B
:104F90000C943C3389E690E00E948083811111C01B
:104FA000E5E0F3E084918F010F5F1F4F882321F02C
:104FB0000E943B3AF801F6CF0E948EA68AE00E943A
:104FC0003B3A10923C1010923B100C942A3883E527
:104FD0000E94063C882311F40C943C330E94843BCD
:104FE000182F8D3308F01CE3109341100E94CB97CB
:104FF0006B017C01212F30E0A8EEB3E00F94561333
:10500000C60ED71EE81EF91EC0923D10D0923E106B
:10501000E0923F10F09240100C943C338DE690E00B
:105020000E94808381110C943C3380917A0683FF27
:1050300002C00C943C3383E50E94063C21968FAF5E
:10504000219781110C94C43382E50E94063C8111A2
:105050000C94C4330C943C3380917A0683FF02C0D5
:105060000C943C3360E080E493E00E94C0F583E55B
:105070000E94063C21968FAF219781110C943E35FA
:1050800082E50E94063C81110C943E350C943C3321
:1050900080E50E94063C811108C083E50E94063C21
:1050A000811109C03FEF20E00AC00E94843B8111BA
:1050B0000C943C33F2CF0E94743B362F272F832F62
:1050C000922F8F3F910519F010F08FEF90E09093A1
:1050D0007915809378150C943C3380E50E94063C4A
:1050E000811106C010927915109278150C943C33FA
:1050F0000E94743B672B11F00C943C33F3CF0E9459
:10510000B0A70E9427C30E9431D410927915109243
:10511000781568EE73E080E090E00E94C4F460E0EF
:105120008DE493E00E94C0F50C943C331092060489
:105130000C943C3381E0809306040C943C3383E56B
:105140000E94063C8823A1F00E94A43B20E030E0AE
:105150004AE754E40F94920F0F94AF1460936002E7
:105160007093610280936202909363020C943C33CB
:1051700088E50E94D73B81110C948A3689E50E940C
:10518000D73B81110C948A368AE50E94D73B811166
:105190000C948A3685E40E94D73B81110C948A36A0
:1051A0000E9427C30E9431D40C943C3383E50E94B3
:1051B000D73B882311F40C943C330E94A43B20E09D
:1051C00030E04AE754E40F94920F0F94AF146093C9
:1051D00048107093491080934A1090934B100C9490
:1051E0003C33BFEBCB2EB2E0DB2E1AE8E12E17E00A
:1051F000F12E10E0D6018D916D010E94D73B8823DE
:1052000009F46DC0133009F063C00E94A43B4B0148
:105210005C0120E030E040EA51E40F942D0F87FF5D
:105220004EC0A501940160919607709197078091F7
:105230009807909199070F9442142B013C019B0110
:10524000AC016091CA077091CB078091CC07909117
:10525000CD070F94920F6093CA077093CB0780938A
:10526000CC079093CD07A3019201609137157091FF
:1052700038158091391590913A150F94920F6093DB
:105280003715709338158093391590933A156091BE
:105290008706709188068091890690918A060F94FE
:1052A000310FA30192010F94920F0F94AF146093EA
:1052B0008706709388068093890690938A06809269
:1052C000960790929707A0929807B092990707C007
:1052D0000E94A43BF70160837183828393831F5FE5
:1052E000F4E0EF0EF11C143009F084CF0E948462C8
:1052F0000C943C330E9427C30E9440E10C943C3341
:1053000084918F010F5F1F4F882321F00E943B3A49
:10531000F801F6CF60E083E094E00E94FCE061E0F9
:105320008CEF93E00E94FCE061E081EF93E00E944B
:10533000FCE061E081EE93E00E94FCE060E088ED3B
:1053400093E00E94FCE061E08EEC93E00E94FCE0C0
:1053500061E084EC93E00E94FCE061E08CEB93E080
:105360000E94FCE061E08EEA93E00E94FCE060E0D5
:1053700080EA93E00E94FCE060E081E993E00E9413
:10538000FCE060E083E893E00E94FCE060E08DE6F2
:1053900093E00E94FCE060E08CE593E00E94FCE07A
:1053A0000C943C3360E08091A2159091A3150E946B
:1053B000DEF50C943C3385E40E94063C882319F00A
:1053C0000E94953B03C085E40E94D73B882361F08F
:1053D000E7ECFFE284918F010F5F1F4F882321F0DC
:1053E0000E943B3AF801F6CF81E40E94063C8823F4
:1053F00019F00E94953B03C081E40E94D73B8823AB
:1054000061F0E8EDF4E084918F010F5F1F4F882376
:1054100021F00E943B3AF801F6CF0091A2151091BD
:10542000A315D8018D918D01882309F458CD0E94D0
:105430003B3AF7CF84918F010F5F1F4F882321F0F4
:105440000E943B3AF801F6CFECEEF4E084918F0134
:105450000F5F1F4F882321F00E943B3AF801F6CFDF
:10546000659B03C009E413E002C00EE413E0F801F9
:1054700081918F01882319F00E943B3AF8CF8AE08E
:105480000E943B3AE4EEF4E084918F010F5F1F4FDE
:10549000882321F00E943B3AF801F6CF8091030166
:1054A00081FF03C009E413E002C00EE413E0D80159
:1054B0008D918D01882319F00E943B3AF8CF8AE044
:1054C0000E943B3AECEDF4E084918F010F5F1F4F97
:1054D000882321F00E943B3AF801F6CF4B9903C094
:1054E00009E413E002C00EE413E0F80181918F019A
:1054F000882309F4F4CC0E943B3AF7CF81E08093F3
:10550000F9118093F8110C943C3383E50E94063C1A
:10551000882319F00E94743B02C060E070E08B01A8
:10552000112702301105D4F0E5E4FFE184918F01E9
:105530000F5F1F4F882321F00E943B3AF801F6CFFE
:10554000EEE0F5E084918F010F5F1F4F882311F487
:105550000C943C330E943B3AF801F4CF88E40E945B
:10556000063C8823A9F00E94743B6A3A71053CF01E
:105570006431F1E07F072CF063E171E002C06AEA78
:1055800070E0F801EE0FFF1FEB55F94F7183608358
:1055900086E40E94063C8823A9F00E94743BF8012F
:1055A000EE0FFF1FE755F94F718360836F3F710561
:1055B00019F014F06FEF70E077FF02C060E070E068
:1055C0007183608382E40E94063C882311F40C946A
:1055D0003C330E94743B6530710534F064377105CB
:1055E0002CF063E770E002C065E070E0000F111F6F
:1055F000F801EF55F94F718360830C943C3388ECCC
:1056000090E00E94808381110C943C3384E40E94DA
:10561000D73B8823C1F10E94A43B11E020E030E099
:10562000A9010F942D0F811101C010E01093D20732
:10563000112349F10E94A43BE091E60724E0E29F98
:10564000F0011124E253F84F6083718382839383C6
:1056500020E030E0A9016091CE077091CF078091E2
:10566000D0079091D1070F942D0F81110CC080E0CD
:1056700090E0A0E4B0E48093CE079093CF07A0938E
:10568000D007B093D1070E940154F6C72BE3E22E56
:1056900025E1F22E0FEB12E034E0D32ED00ED8012C
:1056A0008D918D010E94D73B882349F00E94A43B35
:1056B0000F94AF14F7016083718382839383F4E0C6
:1056C000EF0EF11CD012EBCF0E945761D5C78BE2D1
:1056D000E82E85E1F82E0FEB12E094E0D92ED00EE3
:1056E000D8018D918D010E94D73B882339F00E940B
:1056F000A43BF7016083718382839383F4E0EF0E10
:10570000F11CD012EDCFB8C70E9429E0B5C70F5FDA
:105710001F4FF4E0EF0EF11C0330110511F40C944F
:10572000AC22D6018D916D010E94D73B882379F37D
:105730000E94A43BF7016083718382839383C80135
:105740000E943F83E4CF0E944BDF96C783E50E940F
:10575000063C882309F490C70E94743B7093320280
:105760006093310289C70E94A6DE86C783E50E9446
:10577000063C882319F00E94743B02C064E071E08B
:1057800079A368A380E50E94063C882339F00E9433
:10579000743B693823E1720730F402C068EE73E0AD
:1057A0007A83698304C088E893E19A838983BE0180
:1057B000605E7F4FCE0101960E94E7EB5DC785E4F6
:1057C0000E94063C811110C080E50E94D73B8823CF
:1057D00091F00E94A43B6093940670939506809389
:1057E00096069093970607C00E94843B882361F336
:1057F000E5E4FFE171C089E40E94D73B882381F092
:105800000E94A43B2CEA35EC47E25EE30F94920F32
:1058100060939C0670939D0680939E0690939F06CE
:1058200084E40E94D73B882381F00E94A43B2CEAA9
:1058300035EC47E25EE30F94421460939806709350
:10584000990680939A0690939B06E7ECFFE2849179
:105850008F010F5F1F4F882321F00E943B3AF80110
:10586000F6CF4091940650919506609196067091FE
:10587000970688E395E00E94F9602CEA35EC47E250
:105880005EE360919C0670919D0680919E069091CA
:105890009F060F944214AB01BC0184E395E00E9483
:1058A000DC602CEA35EC47E25EE36091980670918B
:1058B000990680919A0690919B060F94920FAB01E6
:1058C000BC0180E395E00E94DC608AE00E943B3AE4
:1058D000D3C60E943B3AF80184918F010F5F1F4F9E
:1058E0008111F7CF0FE613E0D8018D918D01882348
:1058F00009F4F5CA0E943B3AF7CF83E50E94D73BF3
:10590000182F882371F00E94A43B0F94AA1470935F
:105910001B0260931A0221E0672B09F020E020931C
:10592000750680E50E94D73B882359F020911A0222
:1059300030911B02232B11F00E94953B809375063A
:105940009BC6111199C6E7ECFFE284918F010F5FAE
:105950001F4F882321F00E943B3AF801F6CF809137
:105960007506811103C068E573E002C06BE473E063
:1059700081E595E00E942F6160911A0270911B02EF
:1059800080E495E00E941661ECE3F5E084918F01DC
:105990000F5F1F4F882309F46FC60E943B3AF8013E
:1059A000F5CF85E40E94063C882321F00E94743BD9
:1059B0007B0102C0E12CF12C83E40E94063C882389
:1059C00031F00E94743BE2966FAFE29704C025E08D
:1059D000E2962FAFE29785E50E94063C882319F0F6
:1059E0000E94953B03C085E50E94D73BEE968FAFA2
:1059F000EE97F7FC07C0812C912CB6E1AB2EB3E4F7
:105A0000BB2E06C0812C912CACE8AA2EA2E4BA2EA3
:105A100083E50E94063C882321F00E94A43B4B01B1
:105A20005C01E114F10411F41092E6070E94CB9797
:105A30002B013C01E11003C000E813E00BC003E9B7
:105A400013E0D8018D918D01882309F448CA0E9482
:105A50003B3AF7CFF80181918F01882319F00E941A
:105A60003B3AF8CFC501B4010F94AA14072E000CDD
:105A7000880B990B0F94330F21966FAF219778AF56
:105A80008CAF25969FAF2597A3019201205C3346EA
:105A90004F4F5F4FCA57DF4F288339834A835B8359
:105AA000C658D0408AE00E943B3A0E94B0A78FE7D8
:105AB0008093E50781E080932A02E9964CAE5DAEC3
:105AC0006EAE7FAEE997C258DF4F488259826A8234
:105AD0007B82CE57D040E5961FAEE597CE57DF4F7D
